{
  "contractName": "CryptoMon",
  "abi": [
    {
      "constant": true,
      "inputs": [
        {
          "name": "interfaceID",
          "type": "bytes4"
        }
      ],
      "name": "supportsInterface",
      "outputs": [
        {
          "name": "",
          "type": "bool"
        }
      ],
      "payable": false,
      "stateMutability": "view",
      "type": "function"
    },
    {
      "constant": true,
      "inputs": [
        {
          "name": "_tokenId",
          "type": "uint256"
        }
      ],
      "name": "getApproved",
      "outputs": [
        {
          "name": "",
          "type": "address"
        }
      ],
      "payable": false,
      "stateMutability": "view",
      "type": "function"
    },
    {
      "constant": false,
      "inputs": [
        {
          "name": "_approved",
          "type": "address"
        },
        {
          "name": "_tokenId",
          "type": "uint256"
        }
      ],
      "name": "approve",
      "outputs": [],
      "payable": true,
      "stateMutability": "payable",
      "type": "function"
    },
    {
      "constant": false,
      "inputs": [
        {
          "name": "_min",
          "type": "uint256"
        },
        {
          "name": "_max",
          "type": "uint256"
        }
      ],
      "name": "randInt",
      "outputs": [
        {
          "name": "",
          "type": "uint256"
        }
      ],
      "payable": false,
      "stateMutability": "nonpayable",
      "type": "function"
    },
    {
      "constant": false,
      "inputs": [
        {
          "name": "_newOwner",
          "type": "address"
        }
      ],
      "name": "nominateNewOwner",
      "outputs": [],
      "payable": false,
      "stateMutability": "nonpayable",
      "type": "function"
    },
    {
      "constant": true,
      "inputs": [],
      "name": "totalSupply",
      "outputs": [
        {
          "name": "",
          "type": "uint256"
        }
      ],
      "payable": false,
      "stateMutability": "view",
      "type": "function"
    },
    {
      "constant": false,
      "inputs": [
        {
          "name": "_from",
          "type": "address"
        },
        {
          "name": "_to",
          "type": "address"
        },
        {
          "name": "_tokenId",
          "type": "uint256"
        }
      ],
      "name": "transferFrom",
      "outputs": [],
      "payable": true,
      "stateMutability": "payable",
      "type": "function"
    },
    {
      "constant": false,
      "inputs": [
        {
          "name": "_from",
          "type": "address"
        },
        {
          "name": "_to",
          "type": "address"
        },
        {
          "name": "_tokenId",
          "type": "uint256"
        }
      ],
      "name": "safeTransferFrom",
      "outputs": [],
      "payable": true,
      "stateMutability": "payable",
      "type": "function"
    },
    {
      "constant": false,
      "inputs": [
        {
          "name": "_atk",
          "type": "uint8"
        },
        {
          "name": "_def",
          "type": "uint8"
        },
        {
          "name": "_spd",
          "type": "uint8"
        },
        {
          "name": "_lvl",
          "type": "uint8"
        },
        {
          "name": "_rarity",
          "type": "uint8"
        },
        {
          "name": "_exp",
          "type": "uint256"
        }
      ],
      "name": "createCustomMonster",
      "outputs": [
        {
          "name": "",
          "type": "uint32"
        }
      ],
      "payable": false,
      "stateMutability": "nonpayable",
      "type": "function"
    },
    {
      "constant": true,
      "inputs": [
        {
          "name": "_tokenId",
          "type": "uint256"
        }
      ],
      "name": "ownerOf",
      "outputs": [
        {
          "name": "",
          "type": "address"
        }
      ],
      "payable": false,
      "stateMutability": "view",
      "type": "function"
    },
    {
      "constant": true,
      "inputs": [
        {
          "name": "_owner",
          "type": "address"
        }
      ],
      "name": "balanceOf",
      "outputs": [
        {
          "name": "",
          "type": "uint256"
        }
      ],
      "payable": false,
      "stateMutability": "view",
      "type": "function"
    },
    {
      "constant": false,
      "inputs": [],
      "name": "acceptOwnership",
      "outputs": [],
      "payable": false,
      "stateMutability": "nonpayable",
      "type": "function"
    },
    {
      "constant": true,
      "inputs": [
        {
          "name": "",
          "type": "uint32"
        }
      ],
      "name": "inSale",
      "outputs": [
        {
          "name": "",
          "type": "uint256"
        }
      ],
      "payable": false,
      "stateMutability": "view",
      "type": "function"
    },
    {
      "constant": true,
      "inputs": [
        {
          "name": "",
          "type": "uint256"
        }
      ],
      "name": "params",
      "outputs": [
        {
          "name": "",
          "type": "uint16"
        }
      ],
      "payable": false,
      "stateMutability": "view",
      "type": "function"
    },
    {
      "constant": false,
      "inputs": [
        {
          "name": "_operator",
          "type": "address"
        },
        {
          "name": "_approved",
          "type": "bool"
        }
      ],
      "name": "setApprovalForAll",
      "outputs": [],
      "payable": false,
      "stateMutability": "nonpayable",
      "type": "function"
    },
    {
      "constant": false,
      "inputs": [
        {
          "name": "_from",
          "type": "address"
        },
        {
          "name": "_to",
          "type": "address"
        },
        {
          "name": "_tokenId",
          "type": "uint256"
        },
        {
          "name": "_data",
          "type": "bytes"
        }
      ],
      "name": "safeTransferFrom",
      "outputs": [],
      "payable": true,
      "stateMutability": "payable",
      "type": "function"
    },
    {
      "constant": true,
      "inputs": [
        {
          "name": "",
          "type": "uint256"
        }
      ],
      "name": "monsters",
      "outputs": [
        {
          "name": "atk",
          "type": "uint8"
        },
        {
          "name": "def",
          "type": "uint8"
        },
        {
          "name": "spd",
          "type": "uint8"
        },
        {
          "name": "lvl",
          "type": "uint8"
        },
        {
          "name": "rarity",
          "type": "uint8"
        },
        {
          "name": "exp",
          "type": "uint256"
        },
        {
          "name": "busy",
          "type": "bool"
        }
      ],
      "payable": false,
      "stateMutability": "view",
      "type": "function"
    },
    {
      "constant": false,
      "inputs": [
        {
          "name": "_parameter",
          "type": "uint8"
        },
        {
          "name": "_newValue",
          "type": "uint16"
        }
      ],
      "name": "changeParameter",
      "outputs": [],
      "payable": false,
      "stateMutability": "nonpayable",
      "type": "function"
    },
    {
      "constant": true,
      "inputs": [
        {
          "name": "_owner",
          "type": "address"
        },
        {
          "name": "_operator",
          "type": "address"
        }
      ],
      "name": "isApprovedForAll",
      "outputs": [
        {
          "name": "",
          "type": "bool"
        }
      ],
      "payable": false,
      "stateMutability": "view",
      "type": "function"
    },
    {
      "constant": true,
      "inputs": [],
      "name": "ERC721_RECEIVED",
      "outputs": [
        {
          "name": "",
          "type": "bytes4"
        }
      ],
      "payable": false,
      "stateMutability": "view",
      "type": "function"
    },
    {
      "constant": false,
      "inputs": [
        {
          "name": "_from",
          "type": "address"
        },
        {
          "name": "_tokenId",
          "type": "uint256"
        },
        {
          "name": "_data",
          "type": "bytes"
        }
      ],
      "name": "onERC721Received",
      "outputs": [
        {
          "name": "",
          "type": "bytes4"
        }
      ],
      "payable": false,
      "stateMutability": "nonpayable",
      "type": "function"
    },
    {
      "inputs": [],
      "payable": false,
      "stateMutability": "nonpayable",
      "type": "constructor"
    },
    {
      "anonymous": false,
      "inputs": [
        {
          "indexed": true,
          "name": "_player",
          "type": "address"
        },
        {
          "indexed": false,
          "name": "_ids",
          "type": "uint32[6]"
        }
      ],
      "name": "Unboxed",
      "type": "event"
    },
    {
      "anonymous": false,
      "inputs": [
        {
          "indexed": true,
          "name": "_player",
          "type": "address"
        },
        {
          "indexed": false,
          "name": "_id",
          "type": "uint32"
        },
        {
          "indexed": true,
          "name": "_price",
          "type": "uint256"
        }
      ],
      "name": "ForSale",
      "type": "event"
    },
    {
      "anonymous": false,
      "inputs": [
        {
          "indexed": true,
          "name": "_attacker",
          "type": "address"
        },
        {
          "indexed": true,
          "name": "_defender",
          "type": "address"
        },
        {
          "indexed": false,
          "name": "_team1",
          "type": "uint32[20]"
        },
        {
          "indexed": false,
          "name": "_team2",
          "type": "uint32[20]"
        },
        {
          "indexed": false,
          "name": "_bonusWinner",
          "type": "uint8"
        },
        {
          "indexed": true,
          "name": "_winnerId",
          "type": "uint256"
        },
        {
          "indexed": false,
          "name": "_moneyWon",
          "type": "uint256"
        }
      ],
      "name": "Results",
      "type": "event"
    },
    {
      "anonymous": false,
      "inputs": [
        {
          "indexed": true,
          "name": "_parameter",
          "type": "uint8"
        },
        {
          "indexed": false,
          "name": "_oldValue",
          "type": "uint256"
        },
        {
          "indexed": false,
          "name": "_newValue",
          "type": "uint256"
        }
      ],
      "name": "Changed",
      "type": "event"
    },
    {
      "anonymous": false,
      "inputs": [
        {
          "indexed": false,
          "name": "_id",
          "type": "uint32"
        },
        {
          "indexed": false,
          "name": "_atkMod",
          "type": "uint8"
        },
        {
          "indexed": false,
          "name": "_defMod",
          "type": "uint8"
        },
        {
          "indexed": false,
          "name": "_spdMod",
          "type": "uint8"
        }
      ],
      "name": "Upgraded",
      "type": "event"
    },
    {
      "anonymous": false,
      "inputs": [
        {
          "indexed": true,
          "name": "_from",
          "type": "address"
        },
        {
          "indexed": true,
          "name": "_to",
          "type": "address"
        },
        {
          "indexed": true,
          "name": "_tokenId",
          "type": "uint256"
        }
      ],
      "name": "Transfer",
      "type": "event"
    },
    {
      "anonymous": false,
      "inputs": [
        {
          "indexed": true,
          "name": "_owner",
          "type": "address"
        },
        {
          "indexed": true,
          "name": "_approved",
          "type": "address"
        },
        {
          "indexed": true,
          "name": "_tokenId",
          "type": "uint256"
        }
      ],
      "name": "Approval",
      "type": "event"
    },
    {
      "anonymous": false,
      "inputs": [
        {
          "indexed": true,
          "name": "_owner",
          "type": "address"
        },
        {
          "indexed": true,
          "name": "_operator",
          "type": "address"
        },
        {
          "indexed": false,
          "name": "_approved",
          "type": "bool"
        }
      ],
      "name": "ApprovalForAll",
      "type": "event"
    },
    {
      "anonymous": false,
      "inputs": [
        {
          "indexed": true,
          "name": "_from",
          "type": "address"
        },
        {
          "indexed": true,
          "name": "_to",
          "type": "address"
        }
      ],
      "name": "OwnershipTransferred",
      "type": "event"
    },
    {
      "constant": false,
      "inputs": [],
      "name": "unbox",
      "outputs": [],
      "payable": true,
      "stateMutability": "payable",
      "type": "function"
    },
    {
      "constant": false,
      "inputs": [
        {
          "name": "_ids",
          "type": "uint32[5]"
        },
        {
          "name": "_minBet",
          "type": "uint256"
        }
      ],
      "name": "fight",
      "outputs": [],
      "payable": true,
      "stateMutability": "payable",
      "type": "function"
    },
    {
      "constant": false,
      "inputs": [],
      "name": "stopWaiting",
      "outputs": [],
      "payable": false,
      "stateMutability": "nonpayable",
      "type": "function"
    },
    {
      "constant": false,
      "inputs": [
        {
          "name": "_id",
          "type": "uint32"
        },
        {
          "name": "_price",
          "type": "uint256"
        }
      ],
      "name": "sellMonster",
      "outputs": [],
      "payable": false,
      "stateMutability": "nonpayable",
      "type": "function"
    },
    {
      "constant": false,
      "inputs": [
        {
          "name": "_id",
          "type": "uint32"
        }
      ],
      "name": "buyMonster",
      "outputs": [],
      "payable": true,
      "stateMutability": "payable",
      "type": "function"
    },
    {
      "constant": false,
      "inputs": [],
      "name": "withdraw",
      "outputs": [
        {
          "name": "",
          "type": "uint256"
        }
      ],
      "payable": false,
      "stateMutability": "nonpayable",
      "type": "function"
    },
    {
      "constant": false,
      "inputs": [
        {
          "name": "_ids",
          "type": "uint32[]"
        },
        {
          "name": "_atkMod",
          "type": "uint8[]"
        },
        {
          "name": "_defMod",
          "type": "uint8[]"
        },
        {
          "name": "_spdMod",
          "type": "uint8[]"
        }
      ],
      "name": "lvlUp",
      "outputs": [],
      "payable": false,
      "stateMutability": "nonpayable",
      "type": "function"
    }
  ],
  "bytecode": "0x608060405261018060405190810160405280600261ffff168152602001600561ffff168152602001600861ffff168152602001600061ffff168152602001606461ffff16815260200160c861ffff168152602001600561ffff168152602001606461ffff168152602001602861ffff16815260200161017761ffff168152602001600161ffff168152602001600161ffff1681525060d390600c620000a692919062000102565b50348015620000b457600080fd5b50336000806101000a81548173ffffffffffffffffffffffffffffffffffffffff021916908373ffffffffffffffffffffffffffffffffffffffff1602179055504260d281905550620001da565b82600c600f01601090048101928215620001935791602002820160005b838211156200016157835183826101000a81548161ffff021916908361ffff16021790555092602001926002016020816001010492830192600103026200011f565b8015620001915782816101000a81549061ffff021916905560020160208160010104928301926001030262000161565b505b509050620001a29190620001a6565b5090565b620001d791905b80821115620001d357600081816101000a81549061ffff021916905550600101620001ad565b5090565b90565b615e8980620001ea6000396000f30060806040526004361061016a576000357c0100000000000000000000000000000000000000000000000000000000900463ffffffff16806301ffc9a71461016f578063081812fc146101d3578063095ea7b3146102405780630b15650b146102805780631627540c146102cb57806318160ddd1461030e57806323b872dd146103395780633ccfd60b1461039957806342842e0e146103c45780635fc04d5e146104245780636352211e146104b25780636ae535e61461051f57806370a082311461054957806379ba5097146105a05780638762c369146105b75780638fbf9acc146105f45780639d2f053c1461063b578063a22cb46514610684578063a65537e7146106d3578063a74ba9f8146106f9578063b88d4fde14610703578063c0576b73146107a9578063d1deddb414610836578063e985e9c514610874578063ea3e9412146108ef578063ecc98ce414610906578063f0b9e5ba1461096f578063fc236d8614610a26575b600080fd5b34801561017b57600080fd5b506101b960048036038101908080357bffffffffffffffffffffffffffffffffffffffffffffffffffffffff19169060200190929190505050610aa9565b604051808215151515815260200191505060405180910390f35b3480156101df57600080fd5b506101fe60048036038101908080359060200190929190505050610e37565b604051808273ffffffffffffffffffffffffffffffffffffffff1673ffffffffffffffffffffffffffffffffffffffff16815260200191505060405180910390f35b61027e600480360381019080803573ffffffffffffffffffffffffffffffffffffffff16906020019092919080359060200190929190505050610e87565b005b34801561028c57600080fd5b506102b560048036038101908080359060200190929190803590602001909291905050506110d6565b6040518082815260200191505060405180910390f35b3480156102d757600080fd5b5061030c600480360381019080803573ffffffffffffffffffffffffffffffffffffffff169060200190929190505050611127565b005b34801561031a57600080fd5b506103236111c6565b6040518082815260200191505060405180910390f35b610397600480360381019080803573ffffffffffffffffffffffffffffffffffffffff169060200190929190803573ffffffffffffffffffffffffffffffffffffffff169060200190929190803590602001909291905050506111d3565b005b3480156103a557600080fd5b506103ae61154d565b6040518082815260200191505060405180910390f35b610422600480360381019080803573ffffffffffffffffffffffffffffffffffffffff169060200190929190803573ffffffffffffffffffffffffffffffffffffffff16906020019092919080359060200190929190505050611673565b005b34801561043057600080fd5b50610490600480360381019080803560ff169060200190929190803560ff169060200190929190803560ff169060200190929190803560ff169060200190929190803560ff16906020019092919080359060200190929190505050611832565b604051808263ffffffff1663ffffffff16815260200191505060405180910390f35b3480156104be57600080fd5b506104dd60048036038101908080359060200190929190505050611a9e565b604051808273ffffffffffffffffffffffffffffffffffffffff1673ffffffffffffffffffffffffffffffffffffffff16815260200191505060405180910390f35b6105476004803603810190808060a00190919291929080359060200190929190505050611b49565b005b34801561055557600080fd5b5061058a600480360381019080803573ffffffffffffffffffffffffffffffffffffffff169060200190929190505050612331565b6040518082815260200191505060405180910390f35b3480156105ac57600080fd5b506105b56123b5565b005b3480156105c357600080fd5b506105f2600480360381019080803563ffffffff169060200190929190803590602001909291905050506124f0565b005b34801561060057600080fd5b50610625600480360381019080803563ffffffff16906020019092919050505061269c565b6040518082815260200191505060405180910390f35b34801561064757600080fd5b50610666600480360381019080803590602001909291905050506126b4565b604051808261ffff1661ffff16815260200191505060405180910390f35b34801561069057600080fd5b506106d1600480360381019080803573ffffffffffffffffffffffffffffffffffffffff1690602001909291908035151590602001909291905050506126e1565b005b6106f7600480360381019080803563ffffffff1690602001909291905050506127e2565b005b610701612b7a565b005b6107a7600480360381019080803573ffffffffffffffffffffffffffffffffffffffff169060200190929190803573ffffffffffffffffffffffffffffffffffffffff16906020019092919080359060200190929190803590602001908201803590602001908080601f01602080910402602001604051908101604052809392919081815260200183838082843782019150505050505091929192905050506131cb565b005b3480156107b557600080fd5b506107d460048036038101908080359060200190929190505050613548565b604051808860ff1660ff1681526020018760ff1660ff1681526020018660ff1660ff1681526020018560ff1660ff1681526020018460ff1660ff1681526020018381526020018215151515815260200197505050505050505060405180910390f35b34801561084257600080fd5b50610872600480360381019080803560ff169060200190929190803561ffff1690602001909291905050506135e7565b005b34801561088057600080fd5b506108d5600480360381019080803573ffffffffffffffffffffffffffffffffffffffff169060200190929190803573ffffffffffffffffffffffffffffffffffffffff169060200190929190505050613718565b604051808215151515815260200191505060405180910390f35b3480156108fb57600080fd5b506109046137ac565b005b34801561091257600080fd5b5061091b613bc5565b60405180827bffffffffffffffffffffffffffffffffffffffffffffffffffffffff19167bffffffffffffffffffffffffffffffffffffffffffffffffffffffff1916815260200191505060405180910390f35b34801561097b57600080fd5b506109d2600480360381019080803573ffffffffffffffffffffffffffffffffffffffff16906020019092919080359060200190929190803590602001908201803590602001919091929391929390505050613bec565b60405180827bffffffffffffffffffffffffffffffffffffffffffffffffffffffff19167bffffffffffffffffffffffffffffffffffffffffffffffffffffffff1916815260200191505060405180910390f35b348015610a3257600080fd5b50610aa7600480360381019080803590602001908201803590602001919091929391929390803590602001908201803590602001919091929391929390803590602001908201803590602001919091929391929390803590602001908201803590602001919091929391929390505050613c1c565b005b600080600060405180807f737570706f727473496e7465726661636528627974657334290000000000000081525060190190506040518091039020915060405180807f746f74616c537570706c79282900000000000000000000000000000000000000815250600d019050604051809103902060405180807f736166655472616e7366657246726f6d28616464726573732c6164647265737381526020017f2c75696e743235362c6279746573290000000000000000000000000000000000815250602f019050604051809103902060405180807f736166655472616e7366657246726f6d28616464726573732c6164647265737381526020017f2c75696e743235362900000000000000000000000000000000000000000000008152506029019050604051809103902060405180807f7472616e7366657246726f6d28616464726573732c616464726573732c75696e81526020017f74323536290000000000000000000000000000000000000000000000000000008152506025019050604051809103902060405180807f6973417070726f766564466f72416c6c28616464726573732c6164647265737381526020017f29000000000000000000000000000000000000000000000000000000000000008152506021019050604051809103902060405180807f736574417070726f76616c466f72416c6c28616464726573732c626f6f6c2900815250601f019050604051809103902060405180807f676574417070726f7665642875696e74323536290000000000000000000000008152506014019050604051809103902060405180807f617070726f766528616464726573732c75696e743235362900000000000000008152506018019050604051809103902060405180807f6f776e65724f662875696e7432353629000000000000000000000000000000008152506010019050604051809103902060405180807f62616c616e63654f662861646472657373290000000000000000000000000000815250601201905060405180910390201818181818181818189050817bffffffffffffffffffffffffffffffffffffffffffffffffffffffff1916847bffffffffffffffffffffffffffffffffffffffffffffffffffffffff19161480610e2e5750807bffffffffffffffffffffffffffffffffffffffffffffffffffffffff1916847bffffffffffffffffffffffffffffffffffffffffffffffffffffffff1916145b92505050919050565b600060028054905082101515610e4c57600080fd5b60d1600083815260200190815260200160002060009054906101000a900473ffffffffffffffffffffffffffffffffffffffff169050919050565b33818173ffffffffffffffffffffffffffffffffffffffff1660cd600083815260200190815260200160002060009054906101000a900473ffffffffffffffffffffffffffffffffffffffff1673ffffffffffffffffffffffffffffffffffffffff161480610f5457508173ffffffffffffffffffffffffffffffffffffffff1660d1600083815260200190815260200160002060009054906101000a900473ffffffffffffffffffffffffffffffffffffffff1673ffffffffffffffffffffffffffffffffffffffff16145b80611018575060d0600060cd600084815260200190815260200160002060009054906101000a900473ffffffffffffffffffffffffffffffffffffffff1673ffffffffffffffffffffffffffffffffffffffff1673ffffffffffffffffffffffffffffffffffffffff16815260200190815260200160002060008373ffffffffffffffffffffffffffffffffffffffff1673ffffffffffffffffffffffffffffffffffffffff16815260200190815260200160002060009054906101000a900460ff165b151561102357600080fd5b8360d1600085815260200190815260200160002060006101000a81548173ffffffffffffffffffffffffffffffffffffffff021916908373ffffffffffffffffffffffffffffffffffffffff160217905550828473ffffffffffffffffffffffffffffffffffffffff163373ffffffffffffffffffffffffffffffffffffffff167f8c5be1e5ebec7d5bd14f71427d1e84f3dd0314c0f7b2291e5b200ac8c7c3b92560405160405180910390a450505050565b600061f91763df27425a60d254640aa00ce32002018115156110f457fe5b0660d2819055508183141561110c5760009050611121565b8283830360d25481151561111c57fe5b060190505b92915050565b6000809054906101000a900473ffffffffffffffffffffffffffffffffffffffff1673ffffffffffffffffffffffffffffffffffffffff163373ffffffffffffffffffffffffffffffffffffffff1614151561118257600080fd5b80600160006101000a81548173ffffffffffffffffffffffffffffffffffffffff021916908373ffffffffffffffffffffffffffffffffffffffff16021790555050565b6000600280549050905090565b33818173ffffffffffffffffffffffffffffffffffffffff1660cd600083815260200190815260200160002060009054906101000a900473ffffffffffffffffffffffffffffffffffffffff1673ffffffffffffffffffffffffffffffffffffffff1614806112a057508173ffffffffffffffffffffffffffffffffffffffff1660d1600083815260200190815260200160002060009054906101000a900473ffffffffffffffffffffffffffffffffffffffff1673ffffffffffffffffffffffffffffffffffffffff16145b80611364575060d0600060cd600084815260200190815260200160002060009054906101000a900473ffffffffffffffffffffffffffffffffffffffff1673ffffffffffffffffffffffffffffffffffffffff1673ffffffffffffffffffffffffffffffffffffffff16815260200190815260200160002060008373ffffffffffffffffffffffffffffffffffffffff1673ffffffffffffffffffffffffffffffffffffffff16815260200190815260200160002060009054906101000a900460ff165b151561136f57600080fd5b600073ffffffffffffffffffffffffffffffffffffffff168473ffffffffffffffffffffffffffffffffffffffff16141580156113b0575060028054905083105b80156113e757506002838154811015156113c657fe5b906000526020600020906003020160020160009054906101000a900460ff16155b15156113f257600080fd5b6113fa614393565b8360cd600085815260200190815260200160002060006101000a81548173ffffffffffffffffffffffffffffffffffffffff021916908373ffffffffffffffffffffffffffffffffffffffff16021790555060cf60008573ffffffffffffffffffffffffffffffffffffffff1673ffffffffffffffffffffffffffffffffffffffff1681526020019081526020016000206000815480929190600101919050555060cf60008673ffffffffffffffffffffffffffffffffffffffff1673ffffffffffffffffffffffffffffffffffffffff1681526020019081526020016000206000815480929190600190039190505550828473ffffffffffffffffffffffffffffffffffffffff168673ffffffffffffffffffffffffffffffffffffffff167fddf252ad1be2c89b69c2b068fc378daa952ba7f163c4a11628f55a4df523b3ef60405160405180910390a45050505050565b600080600060ce60003373ffffffffffffffffffffffffffffffffffffffff1673ffffffffffffffffffffffffffffffffffffffff1681526020019081526020016000205411151561159e57600080fd5b60ce60003373ffffffffffffffffffffffffffffffffffffffff1673ffffffffffffffffffffffffffffffffffffffff168152602001908152602001600020549050600060ce60003373ffffffffffffffffffffffffffffffffffffffff1673ffffffffffffffffffffffffffffffffffffffff168152602001908152602001600020819055503373ffffffffffffffffffffffffffffffffffffffff166108fc829081150290604051600060405180830381858888f1935050505015801561166b573d6000803e3d6000fd5b508091505090565b33818173ffffffffffffffffffffffffffffffffffffffff1660cd600083815260200190815260200160002060009054906101000a900473ffffffffffffffffffffffffffffffffffffffff1673ffffffffffffffffffffffffffffffffffffffff16148061174057508173ffffffffffffffffffffffffffffffffffffffff1660d1600083815260200190815260200160002060009054906101000a900473ffffffffffffffffffffffffffffffffffffffff1673ffffffffffffffffffffffffffffffffffffffff16145b80611804575060d0600060cd600084815260200190815260200160002060009054906101000a900473ffffffffffffffffffffffffffffffffffffffff1673ffffffffffffffffffffffffffffffffffffffff1673ffffffffffffffffffffffffffffffffffffffff16815260200190815260200160002060008373ffffffffffffffffffffffffffffffffffffffff1673ffffffffffffffffffffffffffffffffffffffff16815260200190815260200160002060009054906101000a900460ff165b151561180f57600080fd5b61182b85858560206040519081016040528060008152506131cb565b5050505050565b60008060009054906101000a900473ffffffffffffffffffffffffffffffffffffffff1673ffffffffffffffffffffffffffffffffffffffff163373ffffffffffffffffffffffffffffffffffffffff1614151561188f57600080fd5b600260e0604051908101604052808960ff1681526020018860ff1681526020018760ff1681526020018660ff1681526020018560ff168152602001848152602001600015158152509080600181540180825580915050906001820390600052602060002090600302016000909192909190915060008201518160000160006101000a81548160ff021916908360ff16021790555060208201518160000160016101000a81548160ff021916908360ff16021790555060408201518160000160026101000a81548160ff021916908360ff16021790555060608201518160000160036101000a81548160ff021916908360ff16021790555060808201518160000160046101000a81548160ff021916908360ff16021790555060a0820151816001015560c08201518160020160006101000a81548160ff0219169083151502179055505050503360cd6000600280549050815260200190815260200160002060006101000a81548173ffffffffffffffffffffffffffffffffffffffff021916908373ffffffffffffffffffffffffffffffffffffffff1602179055506002805490503373ffffffffffffffffffffffffffffffffffffffff16600073ffffffffffffffffffffffffffffffffffffffff167fddf252ad1be2c89b69c2b068fc378daa952ba7f163c4a11628f55a4df523b3ef60405160405180910390a460028054905090509695505050505050565b60008073ffffffffffffffffffffffffffffffffffffffff1660cd600084815260200190815260200160002060009054906101000a900473ffffffffffffffffffffffffffffffffffffffff1673ffffffffffffffffffffffffffffffffffffffff1614151515611b0e57600080fd5b60cd600083815260200190815260200160002060009054906101000a900473ffffffffffffffffffffffffffffffffffffffff169050919050565b6000806000611b56615b7b565b6000806000873410158015611bb957506064606760003373ffffffffffffffffffffffffffffffffffffffff1673ffffffffffffffffffffffffffffffffffffffff1681526020019081526020016000206000600281101515611bb557fe5b0154145b1515611bc457600080fd5b600096505b6005871015611d2f573373ffffffffffffffffffffffffffffffffffffffff1660cd60008b8a600581101515611bfb57fe5b602002013563ffffffff1663ffffffff16815260200190815260200160002060009054906101000a900473ffffffffffffffffffffffffffffffffffffffff1673ffffffffffffffffffffffffffffffffffffffff16148015611ca7575060028988600581101515611c6957fe5b602002013563ffffffff1663ffffffff16815481101515611c8657fe5b906000526020600020906003020160020160009054906101000a900460ff16155b1515611cb257600080fd5b600095505b6005861015611d22578886600581101515611cce57fe5b602002013563ffffffff1663ffffffff168988600581101515611ced57fe5b602002013563ffffffff1663ffffffff16141580611d0a57508587145b1515611d1557600080fd5b8580600101965050611cb7565b8680600101975050611bc9565b600096505b6005871015611db55760028988600581101515611d4d57fe5b602002013563ffffffff1663ffffffff16815481101515611d6a57fe5b906000526020600020906003020160000160039054906101000a900460ff168488600581101515611d9757fe5b602002019060ff16908160ff16815250508680600101975050611d34565b600196505b6005871015611e7f578387600581101515611dd157fe5b602002015192506001870395505b60008610158015611e0757508386600581101515611df957fe5b602002015160ff168360ff16105b15611e4f578386600581101515611e1a57fe5b60200201518460018801600581101515611e3057fe5b602002019060ff16908160ff1681525050858060019003965050611ddf565b828460018801600581101515611e6157fe5b602002019060ff16908160ff16815250508680600101975050611dba565b6001846002600581101515611e9057fe5b60200201510360ff16945060d36006600c81101515611eab57fe5b601091828204019190066002029054906101000a900461ffff1661ffff16851015611f015760d36006600c81101515611ee057fe5b601091828204019190066002029054906101000a900461ffff1661ffff1694505b60d36006600c81101515611f1157fe5b601091828204019190066002029054906101000a900461ffff1661ffff16850396505b60d36006600c81101515611f4457fe5b601091828204019190066002029054906101000a900461ffff1661ffff1685018711158015611f735750606487105b15612118576000606888606481101515611f8957fe5b01541415611f965761210b565b611fb16000606889606481101515611faa57fe5b01546110d6565b91508195505b81606888606481101515611fc757fe5b01540186101561210a57606887606481101515611fe057fe5b015486811515611fec57fe5b06905034600388606481101515611fff57fe5b016000838152602001908152602001600020600201541115801561204757508760038860648110151561202e57fe5b0160008381526020019081526020016000206003015410155b80156120c357503373ffffffffffffffffffffffffffffffffffffffff1660038860648110151561207457fe5b01600083815260200190815260200160002060000160009054906101000a900473ffffffffffffffffffffffffffffffffffffffff1673ffffffffffffffffffffffffffffffffffffffff1614155b156120fd576120f887828b60058060200260405190810160405280929190826005602002808284378201915050505050614449565b612326565b8580600101965050611fb7565b5b8680600101975050611f34565b600096505b600587101561218b57600160028a600060058110151561213957fe5b602002013563ffffffff1663ffffffff1681548110151561215657fe5b906000526020600020906003020160020160006101000a81548160ff021916908315150217905550868060010197505061211d565b6080604051908101604052803373ffffffffffffffffffffffffffffffffffffffff1681526020018a600580602002604051908101604052809291908260056020028082843782019150505050508152602001898152602001348152506003866064811015156121f757fe5b01600060688860648110151561220957fe5b0154815260200190815260200160002060008201518160000160006101000a81548173ffffffffffffffffffffffffffffffffffffffff021916908373ffffffffffffffffffffffffffffffffffffffff160217905550602082015181600101906005612277929190615b9e565b50604082015181600201556060820151816003015590505060688560648110151561229e57fe5b0160008154809291906001019190505550604080519081016040528086815260200160016068886064811015156122d157fe5b015403815250606760003373ffffffffffffffffffffffffffffffffffffffff1673ffffffffffffffffffffffffffffffffffffffff168152602001908152602001600020906002612324929190615c41565b505b505050505050505050565b60008073ffffffffffffffffffffffffffffffffffffffff168273ffffffffffffffffffffffffffffffffffffffff161415151561236e57600080fd5b60cf60008373ffffffffffffffffffffffffffffffffffffffff1673ffffffffffffffffffffffffffffffffffffffff168152602001908152602001600020549050919050565b600160009054906101000a900473ffffffffffffffffffffffffffffffffffffffff1673ffffffffffffffffffffffffffffffffffffffff163373ffffffffffffffffffffffffffffffffffffffff1614151561241157600080fd5b600160009054906101000a900473ffffffffffffffffffffffffffffffffffffffff1673ffffffffffffffffffffffffffffffffffffffff166000809054906101000a900473ffffffffffffffffffffffffffffffffffffffff1673ffffffffffffffffffffffffffffffffffffffff167f8be0079c531659141344cd1fd0a4f28419497f9722a3daafe3b4186f6b6457e060405160405180910390a3336000806101000a81548173ffffffffffffffffffffffffffffffffffffffff021916908373ffffffffffffffffffffffffffffffffffffffff160217905550565b60028263ffffffff1681548110151561250557fe5b906000526020600020906003020160020160009054906101000a900460ff16158061254f5750600060cc60008463ffffffff1663ffffffff16815260200190815260200160002054115b80156125bf57503373ffffffffffffffffffffffffffffffffffffffff1660cd60008463ffffffff16815260200190815260200160002060009054906101000a900473ffffffffffffffffffffffffffffffffffffffff1673ffffffffffffffffffffffffffffffffffffffff16145b15156125ca57600080fd5b8060cc60008463ffffffff1663ffffffff16815260200190815260200160002081905550600081146125fd576001612600565b60005b60028363ffffffff1681548110151561261557fe5b906000526020600020906003020160020160006101000a81548160ff021916908315150217905550803373ffffffffffffffffffffffffffffffffffffffff167ff924003c65581b32c1ca2123e131a27f2124f08fce76c9a94c102c80c2d5b4a684604051808263ffffffff1663ffffffff16815260200191505060405180910390a35050565b60cc6020528060005260406000206000915090505481565b60d381600c811015156126c357fe5b60109182820401919006600202915054906101000a900461ffff1681565b8060d060003373ffffffffffffffffffffffffffffffffffffffff1673ffffffffffffffffffffffffffffffffffffffff16815260200190815260200160002060008473ffffffffffffffffffffffffffffffffffffffff1673ffffffffffffffffffffffffffffffffffffffff16815260200190815260200160002060006101000a81548160ff0219169083151502179055508173ffffffffffffffffffffffffffffffffffffffff163373ffffffffffffffffffffffffffffffffffffffff167f17307eab39ab6107e8899845ad3d59bd9653f200f220920489ca2b5937696c3183604051808215151515815260200191505060405180910390a35050565b600080600060cc60008563ffffffff1663ffffffff16815260200190815260200160002054118015612833575060cc60008463ffffffff1663ffffffff168152602001908152602001600020543410155b151561283e57600080fd5b600060cc60008563ffffffff1663ffffffff1681526020019081526020016000208190555060cd60008463ffffffff16815260200190815260200160002060009054906101000a900473ffffffffffffffffffffffffffffffffffffffff1691506127106128e260d36009600c811015156128b557fe5b601091828204019190066002029054906101000a900461ffff1661ffff16346150e290919063ffffffff16565b8115156128eb57fe5b049050612952816129443460ce60008773ffffffffffffffffffffffffffffffffffffffff1673ffffffffffffffffffffffffffffffffffffffff1681526020019081526020016000205461511a90919063ffffffff16565b61513990919063ffffffff16565b60ce60008473ffffffffffffffffffffffffffffffffffffffff1673ffffffffffffffffffffffffffffffffffffffff16815260200190815260200160002081905550612a088160ce60008060009054906101000a900473ffffffffffffffffffffffffffffffffffffffff1673ffffffffffffffffffffffffffffffffffffffff1673ffffffffffffffffffffffffffffffffffffffff1681526020019081526020016000205461511a90919063ffffffff16565b60ce60008060009054906101000a900473ffffffffffffffffffffffffffffffffffffffff1673ffffffffffffffffffffffffffffffffffffffff1673ffffffffffffffffffffffffffffffffffffffff168152602001908152602001600020819055503360d160008563ffffffff16815260200190815260200160002060006101000a81548173ffffffffffffffffffffffffffffffffffffffff021916908373ffffffffffffffffffffffffffffffffffffffff1602179055508263ffffffff163373ffffffffffffffffffffffffffffffffffffffff168373ffffffffffffffffffffffffffffffffffffffff167f8c5be1e5ebec7d5bd14f71427d1e84f3dd0314c0f7b2291e5b200ac8c7c3b92560405160405180910390a4600060028463ffffffff16815481101515612b3c57fe5b906000526020600020906003020160020160006101000a81548160ff021916908315150217905550612b7582338563ffffffff166111d3565b505050565b600080600080600080600060d36002600c81101515612b9557fe5b601091828204019190066002029054906101000a900461ffff1661ffff1634101515612bf05760d36005600c81101515612bcb57fe5b601091828204019190066002029054906101000a900461ffff1661ffff169650612ccd565b60d36001600c81101515612c0057fe5b601091828204019190066002029054906101000a900461ffff1661ffff1634101515612c5b5760d36004600c81101515612c3657fe5b601091828204019190066002029054906101000a900461ffff1661ffff169650612ccc565b60d36000600c81101515612c6b57fe5b601091828204019190066002029054906101000a900461ffff1661ffff1634101515612cc65760d36003600c81101515612ca157fe5b601091828204019190066002029054906101000a900461ffff1661ffff169650612ccb565b600080fd5b5b5b612cd5614393565b600094505b6006851015612fbb573360cd6000600280549050815260200190815260200160002060006101000a81548173ffffffffffffffffffffffffffffffffffffffff021916908373ffffffffffffffffffffffffffffffffffffffff160217905550612d496000886103e8036110d6565b93506001841415612d6557601192506015915060039050612da8565b600b841015612d7f57600e92506011915060029050612da7565b60c8841015612d9957600b9250600e915060019050612da6565b60089250600b9150600090505b5b5b600260e060405190810160405280612dc086866110d6565b60ff168152602001612dd286866110d6565b60ff168152602001612de486866110d6565b60ff168152602001600160ff1681526020018360ff16815260200160008152602001600015158152509080600181540180825580915050906001820390600052602060002090600302016000909192909190915060008201518160000160006101000a81548160ff021916908360ff16021790555060208201518160000160016101000a81548160ff021916908360ff16021790555060408201518160000160026101000a81548160ff021916908360ff16021790555060608201518160000160036101000a81548160ff021916908360ff16021790555060808201518160000160046101000a81548160ff021916908360ff16021790555060a0820151816001015560c08201518160020160006101000a81548160ff0219169083151502179055505050506001600280549050033373ffffffffffffffffffffffffffffffffffffffff16600073ffffffffffffffffffffffffffffffffffffffff167fddf252ad1be2c89b69c2b068fc378daa952ba7f163c4a11628f55a4df523b3ef60405160405180910390a46001600280549050038686600681101515612f8557fe5b600891828204019190066004026101000a81548163ffffffff021916908363ffffffff1602179055508480600101955050612cda565b3373ffffffffffffffffffffffffffffffffffffffff167fad1f291efd41642f8dfebb6bfc7fae8725716b968743bac9010db2a02a126f4587604051808260068015613048576020028201916000905b82829054906101000a900463ffffffff1663ffffffff168152602001906004019060208260030104928301926001038202915080841161300b5790505b505091505060405180910390a26130a8600660cf60003373ffffffffffffffffffffffffffffffffffffffff1673ffffffffffffffffffffffffffffffffffffffff1681526020019081526020016000205461511a90919063ffffffff16565b60cf60003373ffffffffffffffffffffffffffffffffffffffff1673ffffffffffffffffffffffffffffffffffffffff1681526020019081526020016000208190555061315e3460ce60008060009054906101000a900473ffffffffffffffffffffffffffffffffffffffff1673ffffffffffffffffffffffffffffffffffffffff1673ffffffffffffffffffffffffffffffffffffffff1681526020019081526020016000205461511a90919063ffffffff16565b60ce60008060009054906101000a900473ffffffffffffffffffffffffffffffffffffffff1673ffffffffffffffffffffffffffffffffffffffff1673ffffffffffffffffffffffffffffffffffffffff1681526020019081526020016000208190555050505050505050565b600033838173ffffffffffffffffffffffffffffffffffffffff1660cd600083815260200190815260200160002060009054906101000a900473ffffffffffffffffffffffffffffffffffffffff1673ffffffffffffffffffffffffffffffffffffffff16148061329a57508173ffffffffffffffffffffffffffffffffffffffff1660d1600083815260200190815260200160002060009054906101000a900473ffffffffffffffffffffffffffffffffffffffff1673ffffffffffffffffffffffffffffffffffffffff16145b8061335e575060d0600060cd600084815260200190815260200160002060009054906101000a900473ffffffffffffffffffffffffffffffffffffffff1673ffffffffffffffffffffffffffffffffffffffff1673ffffffffffffffffffffffffffffffffffffffff16815260200190815260200160002060008373ffffffffffffffffffffffffffffffffffffffff1673ffffffffffffffffffffffffffffffffffffffff16815260200190815260200160002060009054906101000a900460ff165b151561336957600080fd5b6133748787876111d3565b61337d86615155565b1561353f578573ffffffffffffffffffffffffffffffffffffffff1663f0b9e5ba8887876040518463ffffffff167c0100000000000000000000000000000000000000000000000000000000028152600401808473ffffffffffffffffffffffffffffffffffffffff1673ffffffffffffffffffffffffffffffffffffffff16815260200183815260200180602001828103825283818151815260200191508051906020019080838360005b83811015613444578082015181840152602081019050613429565b50505050905090810190601f1680156134715780820380516001836020036101000a031916815260200191505b50945050505050602060405180830381600087803b15801561349257600080fd5b505af11580156134a6573d6000803e3d6000fd5b505050506040513d60208110156134bc57600080fd5b8101908080519060200190929190505050925063f0b9e5ba7c0100000000000000000000000000000000000000000000000000000000027bffffffffffffffffffffffffffffffffffffffffffffffffffffffff1916837bffffffffffffffffffffffffffffffffffffffffffffffffffffffff191614151561353e57600080fd5b5b50505050505050565b60028181548110151561355757fe5b90600052602060002090600302016000915090508060000160009054906101000a900460ff16908060000160019054906101000a900460ff16908060000160029054906101000a900460ff16908060000160039054906101000a900460ff16908060000160049054906101000a900460ff16908060010154908060020160009054906101000a900460ff16905087565b6000809054906101000a900473ffffffffffffffffffffffffffffffffffffffff1673ffffffffffffffffffffffffffffffffffffffff163373ffffffffffffffffffffffffffffffffffffffff1614151561364257600080fd5b60008161ffff161015801561365b5750600b8260ff1611155b151561366657600080fd5b8160ff167fd7dd2782a7cef7ee43cf5a86222e0655f51235bf832cc5859c1687c29799fa7360d38460ff16600c8110151561369d57fe5b601091828204019190066002029054906101000a900461ffff1683604051808361ffff1681526020018261ffff1681526020019250505060405180910390a28060d38360ff16600c811015156136ef57fe5b601091828204019190066002026101000a81548161ffff021916908361ffff1602179055505050565b600060d060008473ffffffffffffffffffffffffffffffffffffffff1673ffffffffffffffffffffffffffffffffffffffff16815260200190815260200160002060008373ffffffffffffffffffffffffffffffffffffffff1673ffffffffffffffffffffffffffffffffffffffff16815260200190815260200160002060009054906101000a900460ff16905092915050565b6000806000606760003373ffffffffffffffffffffffffffffffffffffffff1673ffffffffffffffffffffffffffffffffffffffff16815260200190815260200160002060006002811015156137fe57fe5b015492506064831415151561381257600080fd5b606760003373ffffffffffffffffffffffffffffffffffffffff1673ffffffffffffffffffffffffffffffffffffffff168152602001908152602001600020600160028110151561385f57fe5b0154915061391d60038460648110151561387557fe5b0160008481526020019081526020016000206003015460ce600060038760648110151561389e57fe5b01600087815260200190815260200160002060000160009054906101000a900473ffffffffffffffffffffffffffffffffffffffff1673ffffffffffffffffffffffffffffffffffffffff1673ffffffffffffffffffffffffffffffffffffffff1681526020019081526020016000205461511a90919063ffffffff16565b60ce600060038660648110151561393057fe5b01600086815260200190815260200160002060000160009054906101000a900473ffffffffffffffffffffffffffffffffffffffff1673ffffffffffffffffffffffffffffffffffffffff1673ffffffffffffffffffffffffffffffffffffffff16815260200190815260200160002081905550600090505b6005811015613a4a57600060026003856064811015156139c557fe5b016000858152602001908152602001600020600101836005811015156139e757fe5b600891828204019190066004029054906101000a900463ffffffff1663ffffffff16815481101515613a1557fe5b906000526020600020906003020160020160006101000a81548160ff02191690831515021790555080806001019150506139a9565b600383606481101515613a5957fe5b0160006001606886606481101515613a6d57fe5b0154038152602001908152602001600020600384606481101515613a8d57fe5b0160008481526020019081526020016000206000820160009054906101000a900473ffffffffffffffffffffffffffffffffffffffff168160000160006101000a81548173ffffffffffffffffffffffffffffffffffffffff021916908373ffffffffffffffffffffffffffffffffffffffff1602179055506001820181600101906005613b1c929190615c81565b506002820154816002015560038201548160030155905050606883606481101515613b4357fe5b0160008154809291906001900391905055506040805190810160405280606460ff168152602001600060ff16815250606760003373ffffffffffffffffffffffffffffffffffffffff1673ffffffffffffffffffffffffffffffffffffffff168152602001908152602001600020906002613bbf929190615ccc565b50505050565b63f0b9e5ba7c01000000000000000000000000000000000000000000000000000000000281565b600063f0b9e5ba7c0100000000000000000000000000000000000000000000000000000000029050949350505050565b6000806000888890508b8b9050148015613c3b57508686905089899050145b8015613c4c57508484905087879050145b1515613c5757600080fd5b600091505b8a8a905082101561438657600092503373ffffffffffffffffffffffffffffffffffffffff1660cd60008d8d868181101515613c9457fe5b9050602002013563ffffffff1663ffffffff16815260200190815260200160002060009054906101000a900473ffffffffffffffffffffffffffffffffffffffff1673ffffffffffffffffffffffffffffffffffffffff16141515613cf857600080fd5b5b60028b8b848181101515613d0957fe5b9050602002013563ffffffff1663ffffffff16815481101515613d2857fe5b9060005260206000209060030201600101546005600360028e8e878181101515613d4e57fe5b9050602002013563ffffffff1663ffffffff16815481101515613d6d57fe5b906000526020600020906003020160000160039054906101000a900460ff1660ff160a811515613d9957fe5b0411158015613df85750606460028c8c858181101515613db557fe5b9050602002013563ffffffff1663ffffffff16815481101515613dd457fe5b906000526020600020906003020160000160039054906101000a900460ff1660ff16105b15613ea05760028b8b848181101515613e0d57fe5b9050602002013563ffffffff1663ffffffff16815481101515613e2c57fe5b9060005260206000209060030201600001600381819054906101000a900460ff168092919060010191906101000a81548160ff021916908360ff1602179055505060d3600a600c81101515613e7d57fe5b601091828204019190066002029054906101000a900461ffff1683019250613cf9565b8260ff16613f178686858181101515613eb557fe5b9050602002013560ff1660ff16613f098a8a878181101515613ed357fe5b9050602002013560ff1660ff168d8d888181101515613eee57fe5b9050602002013560ff1660ff1661511a90919063ffffffff16565b61511a90919063ffffffff16565b11151515613f2457600080fd5b6014600c600b60028e8e878181101515613f3a57fe5b9050602002013563ffffffff1663ffffffff16815481101515613f5957fe5b906000526020600020906003020160000160039054906101000a900460ff1660ff16811515613f8457fe5b04020160ff1690506140098989848181101515613f9d57fe5b9050602002013560ff1660ff1660028d8d868181101515613fba57fe5b9050602002013563ffffffff1663ffffffff16815481101515613fd957fe5b906000526020600020906003020160000160009054906101000a900460ff1660ff1661511a90919063ffffffff16565b81101580156140945750614090878784818110151561402457fe5b9050602002013560ff1660ff1660028d8d86818110151561404157fe5b9050602002013563ffffffff1663ffffffff1681548110151561406057fe5b906000526020600020906003020160000160019054906101000a900460ff1660ff1661511a90919063ffffffff16565b8110155b801561411c575061411885858481811015156140ac57fe5b9050602002013560ff1660ff1660028d8d8681811015156140c957fe5b9050602002013563ffffffff1663ffffffff168154811015156140e857fe5b906000526020600020906003020160000160029054906101000a900460ff1660ff1661511a90919063ffffffff16565b8110155b151561412757600080fd5b888883818110151561413557fe5b9050602002013560ff1660028c8c85818110151561414f57fe5b9050602002013563ffffffff1663ffffffff1681548110151561416e57fe5b906000526020600020906003020160000160008282829054906101000a900460ff160192506101000a81548160ff021916908360ff16021790555086868381811015156141b757fe5b9050602002013560ff1660028c8c8581811015156141d157fe5b9050602002013563ffffffff1663ffffffff168154811015156141f057fe5b906000526020600020906003020160000160018282829054906101000a900460ff160192506101000a81548160ff021916908360ff160217905550848483818110151561423957fe5b9050602002013560ff1660028c8c85818110151561425357fe5b9050602002013563ffffffff1663ffffffff1681548110151561427257fe5b906000526020600020906003020160000160028282829054906101000a900460ff160192506101000a81548160ff021916908360ff1602179055507f8a80140e41ad61a4458124652e64b7c3e9329b7107778fe19106dc675901302b8b8b8481811015156142dc57fe5b9050602002013563ffffffff168a8a8581811015156142f757fe5b9050602002013560ff16898986818110151561430f57fe5b9050602002013560ff16888887818110151561432757fe5b9050602002013560ff16604051808563ffffffff1663ffffffff1681526020018460ff1660ff1681526020018360ff1660ff1681526020018260ff1660ff16815260200194505050505060405180910390a18180600101925050613c5c565b5050505050505050505050565b600060cf60003373ffffffffffffffffffffffffffffffffffffffff1673ffffffffffffffffffffffffffffffffffffffff168152602001908152602001600020541415614447576040805190810160405280606460ff168152602001600060ff16815250606760003373ffffffffffffffffffffffffffffffffffffffff1673ffffffffffffffffffffffffffffffffffffffff168152602001908152602001600020906002614445929190615ccc565b505b565b614451615d11565b614459615d57565b614461615d57565b600080600080600080600060038d60648110151561447b57fe5b0160008d8152602001908152602001600020608060405190810160405290816000820160009054906101000a900473ffffffffffffffffffffffffffffffffffffffff1673ffffffffffffffffffffffffffffffffffffffff1673ffffffffffffffffffffffffffffffffffffffff16815260200160018201600580602002604051908101604052809291908260058015614557576020028201916000905b82829054906101000a900463ffffffff1663ffffffff168152602001906004019060208260030104928301926001038202915080841161451a5790505b5050505050815260200160028201548152602001600382015481525050995060688d60648110151561458557fe5b01600081548092919060019003919050555060038d6064811015156145a657fe5b01600060688f6064811015156145b857fe5b0154815260200190815260200160002060038e6064811015156145d757fe5b0160008e81526020019081526020016000206000820160009054906101000a900473ffffffffffffffffffffffffffffffffffffffff168160000160006101000a81548173ffffffffffffffffffffffffffffffffffffffff021916908373ffffffffffffffffffffffffffffffffffffffff1602179055506001820181600101906005614666929190615c81565b5060028201548160020155600382015481600301559050506040805190810160405280606460ff168152602001600060ff16815250606760008c6000015173ffffffffffffffffffffffffffffffffffffffff1673ffffffffffffffffffffffffffffffffffffffff1681526020019081526020016000209060026146ec929190615ccc565b5060009c505b60058d1015614a2e578a8d60058110151561470957fe5b6020020151898e60148110151561471c57fe5b602002019063ffffffff16908163ffffffff168152505060028b8e60058110151561474357fe5b602002015163ffffffff1681548110151561475a57fe5b906000526020600020906003020160000160009054906101000a900460ff1660ff168960058f0160148110151561478d57fe5b602002019063ffffffff16908163ffffffff168152505060028b8e6005811015156147b457fe5b602002015163ffffffff168154811015156147cb57fe5b906000526020600020906003020160000160019054906101000a900460ff1660ff1689600a8f016014811015156147fe57fe5b602002019063ffffffff16908163ffffffff168152505060028b8e60058110151561482557fe5b602002015163ffffffff1681548110151561483c57fe5b906000526020600020906003020160000160029054906101000a900460ff1660ff1689600f8f0160148110151561486f57fe5b602002019063ffffffff16908163ffffffff168152505089602001518d60058110151561489857fe5b6020020151888e6014811015156148ab57fe5b602002019063ffffffff16908163ffffffff168152505060028a602001518e6005811015156148d657fe5b602002015163ffffffff168154811015156148ed57fe5b906000526020600020906003020160000160009054906101000a900460ff1660ff168860058f0160148110151561492057fe5b602002019063ffffffff16908163ffffffff168152505060028a602001518e60058110151561494b57fe5b602002015163ffffffff1681548110151561496257fe5b906000526020600020906003020160000160019054906101000a900460ff1660ff1688600a8f0160148110151561499557fe5b602002019063ffffffff16908163ffffffff168152505060028a602001518e6005811015156149c057fe5b602002015163ffffffff168154811015156149d757fe5b906000526020600020906003020160000160029054906101000a900460ff1660ff1688600f8f01601481101515614a0a57fe5b602002019063ffffffff16908163ffffffff16815250508c806001019d50506146f2565b60009c505b60058d1015614a9e57600060028b602001518f600581101515614a5257fe5b602002015163ffffffff16815481101515614a6957fe5b906000526020600020906003020160020160006101000a81548160ff0219169083151502179055508c806001019d5050614a33565b614aac8b8b60200151615168565b96506001871415614ad0573395508960000151945034935089606001519250614d2f565b6002871415614af2578960000151955033945089606001519350349250614d2e565b614b4c8a6060015160ce60008d6000015173ffffffffffffffffffffffffffffffffffffffff1673ffffffffffffffffffffffffffffffffffffffff1681526020019081526020016000205461511a90919063ffffffff16565b60ce60008c6000015173ffffffffffffffffffffffffffffffffffffffff1673ffffffffffffffffffffffffffffffffffffffff16815260200190815260200160002081905550614be53460ce60003373ffffffffffffffffffffffffffffffffffffffff1673ffffffffffffffffffffffffffffffffffffffff1681526020019081526020016000205461511a90919063ffffffff16565b60ce60003373ffffffffffffffffffffffffffffffffffffffff1673ffffffffffffffffffffffffffffffffffffffff16815260200190815260200160002081905550868a6000015173ffffffffffffffffffffffffffffffffffffffff163373ffffffffffffffffffffffffffffffffffffffff167fdeb604bc66f2db85002d49e5e9a738a68e2f5b127db21e1e4632affedb74b9d78c8c60d3600b600c81101515614c8e57fe5b601091828204019190066002029054906101000a900461ffff16886040518085601460200280838360005b83811015614cd4578082015181840152602081019050614cb9565b5050505090500184601460200280838360005b83811015614d02578082015181840152602081019050614ce7565b505050509050018360ff1660ff16815260200182815260200194505050505060405180910390a46150d3565b5b348a606001511115614d4357349150614d4b565b896060015191505b612710614d8e60d36009600c81101515614d6157fe5b601091828204019190066002029054906101000a900461ffff1661ffff16846150e290919063ffffffff16565b811515614d9757fe5b049050614e1084614e0283614df48660ce60008d73ffffffffffffffffffffffffffffffffffffffff1673ffffffffffffffffffffffffffffffffffffffff1681526020019081526020016000205461511a90919063ffffffff16565b61513990919063ffffffff16565b61511a90919063ffffffff16565b60ce60008873ffffffffffffffffffffffffffffffffffffffff1673ffffffffffffffffffffffffffffffffffffffff16815260200190815260200160002081905550614eb782614ea98560ce60008a73ffffffffffffffffffffffffffffffffffffffff1673ffffffffffffffffffffffffffffffffffffffff1681526020019081526020016000205461511a90919063ffffffff16565b61513990919063ffffffff16565b60ce60008773ffffffffffffffffffffffffffffffffffffffff1673ffffffffffffffffffffffffffffffffffffffff16815260200190815260200160002081905550614f6d8160ce60008060009054906101000a900473ffffffffffffffffffffffffffffffffffffffff1673ffffffffffffffffffffffffffffffffffffffff1673ffffffffffffffffffffffffffffffffffffffff1681526020019081526020016000205461511a90919063ffffffff16565b60ce60008060009054906101000a900473ffffffffffffffffffffffffffffffffffffffff1673ffffffffffffffffffffffffffffffffffffffff1673ffffffffffffffffffffffffffffffffffffffff16815260200190815260200160002081905550868a6000015173ffffffffffffffffffffffffffffffffffffffff163373ffffffffffffffffffffffffffffffffffffffff167fdeb604bc66f2db85002d49e5e9a738a68e2f5b127db21e1e4632affedb74b9d78c8c60d3600b600c8110151561503757fe5b601091828204019190066002029054906101000a900461ffff16886040518085601460200280838360005b8381101561507d578082015181840152602081019050615062565b5050505090500184601460200280838360005b838110156150ab578082015181840152602081019050615090565b505050509050018360ff1660ff16815260200182815260200194505050505060405180910390a45b50505050505050505050505050565b6000808314156150f55760009050615114565b818302905081838281151561510657fe5b0414151561511057fe5b8090505b92915050565b6000818301905082811015151561513057600080fd5b80905092915050565b600082821115151561514a57600080fd5b818303905092915050565b600080823b905060008111915050919050565b6000806000615175615d7b565b61517d615d7b565b600080945060009350600090505b60058110156153cf5760806040519081016040528060028a846005811015156151b057fe5b602002015163ffffffff168154811015156151c757fe5b906000526020600020906003020160000160009054906101000a900460ff1660ff16815260200160028a846005811015156151fe57fe5b602002015163ffffffff1681548110151561521557fe5b906000526020600020906003020160000160019054906101000a900460ff1660ff16815260200160028a8460058110151561524c57fe5b602002015163ffffffff1681548110151561526357fe5b906000526020600020906003020160000160029054906101000a900460ff1660ff168152602001600063ffffffff1681525083826006811015156152a357fe5b6020020181905250608060405190810160405280600289846005811015156152c757fe5b602002015163ffffffff168154811015156152de57fe5b906000526020600020906003020160000160009054906101000a900460ff1660ff1681526020016002898460058110151561531557fe5b602002015163ffffffff1681548110151561532c57fe5b906000526020600020906003020160000160019054906101000a900460ff1660ff1681526020016002898460058110151561536357fe5b602002015163ffffffff1681548110151561537a57fe5b906000526020600020906003020160000160029054906101000a900460ff1660ff168152602001600063ffffffff1681525082826006811015156153ba57fe5b6020020181905250808060010191505061518b565b600090505b60058110156158ee5781816006811015156153eb57fe5b60200201516040015160ff16838260068110151561540557fe5b60200201516040015160ff16111561551857818160068110151561542557fe5b60200201516020015160ff16838260068110151561543f57fe5b60200201516000015160ff1611156154b457848060010195505060d3600b600c8110151561546957fe5b601091828204019190066002029054906101000a900461ffff16836001830160068110151561549457fe5b60200201516000018181510191509060ff16908160ff1681525050615513565b838060010194505060d3600b600c811015156154cc57fe5b601091828204019190066002029054906101000a900461ffff1682600183016006811015156154f757fe5b60200201516020018181510191509060ff16908160ff16815250505b6158e1565b818160068110151561552657fe5b60200201516040015160ff16838260068110151561554057fe5b60200201516040015160ff16101561565357828160068110151561556057fe5b60200201516020015160ff16828260068110151561557a57fe5b60200201516000015160ff1611156155ef57838060010194505060d3600b600c811015156155a457fe5b601091828204019190066002029054906101000a900461ffff1682600183016006811015156155cf57fe5b60200201516000018181510191509060ff16908160ff168152505061564e565b848060010195505060d3600b600c8110151561560757fe5b601091828204019190066002029054906101000a900461ffff16836001830160068110151561563257fe5b60200201516020018181510191509060ff16908160ff16815250505b6158e0565b818160068110151561566157fe5b60200201516000015160ff16838260068110151561567b57fe5b60200201516000015160ff1611156156f057848060010195505060d3600b600c811015156156a557fe5b601091828204019190066002029054906101000a900461ffff1683600183016006811015156156d057fe5b60200201516000018181510191509060ff16908160ff16815250506158df565b81816006811015156156fe57fe5b60200201516000015160ff16838260068110151561571857fe5b60200201516000015160ff16101561578d57838060010194505060d3600b600c8110151561574257fe5b601091828204019190066002029054906101000a900461ffff16826001830160068110151561576d57fe5b60200201516020018181510191509060ff16908160ff16815250506158de565b818160068110151561579b57fe5b60200201516020015160ff1683826006811015156157b557fe5b60200201516020015160ff16111561582a57848060010195505060d3600b600c811015156157df57fe5b601091828204019190066002029054906101000a900461ffff16836001830160068110151561580a57fe5b60200201516020018181510191509060ff16908160ff16815250506158dd565b828160068110151561583857fe5b60200201516020015160ff16838260068110151561585257fe5b60200201516020015160ff1610156158c757838060010194505060d3600b600c8110151561587c57fe5b601091828204019190066002029054906101000a900461ffff1682600183016006811015156158a757fe5b60200201516020018181510191509060ff16908160ff16815250506158dc565b6158d388886001615938565b6000955061592d565b5b5b5b5b5b80806001019150506153d4565b6159168486116158fe5787615900565b885b85871061590d578861590f565b895b6000615938565b838511615924576002615927565b60015b60ff1695505b505050505092915050565b60008090505b6005811015615b755760646002858360058110151561595957fe5b602002015163ffffffff1681548110151561597057fe5b906000526020600020906003020160000160039054906101000a900460ff1660ff161015615a3d5760d36007600c811015156159a857fe5b601091828204019190066002029054906101000a900461ffff1661ffff16600285836005811015156159d657fe5b602002015163ffffffff168154811015156159ed57fe5b9060005260206000209060030201600101540160028583600581101515615a1057fe5b602002015163ffffffff16815481101515615a2757fe5b9060005260206000209060030201600101819055505b606460028483600581101515615a4f57fe5b602002015163ffffffff16815481101515615a6657fe5b906000526020600020906003020160000160039054906101000a900460ff1660ff161015615b685781615ac25760d36008600c81101515615aa357fe5b601091828204019190066002029054906101000a900461ffff16615aed565b60d36007600c81101515615ad257fe5b601091828204019190066002029054906101000a900461ffff165b61ffff1660028483600581101515615b0157fe5b602002015163ffffffff16815481101515615b1857fe5b9060005260206000209060030201600101540160028483600581101515615b3b57fe5b602002015163ffffffff16815481101515615b5257fe5b9060005260206000209060030201600101819055505b808060010191505061593e565b50505050565b60a060405190810160405280600590602082028038833980820191505090505090565b826005600701600890048101928215615c305791602002820160005b83821115615bfe57835183826101000a81548163ffffffff021916908363ffffffff1602179055509260200192600401602081600301049283019260010302615bba565b8015615c2e5782816101000a81549063ffffffff0219169055600401602081600301049283019260010302615bfe565b505b509050615c3d9190615daa565b5090565b8260028101928215615c70579160200282015b82811115615c6f578251825591602001919060010190615c54565b5b509050615c7d9190615ddd565b5090565b826005600701600890048101928215615cbb57916007016008900482015b82811115615cba578254825591600101919060010190615c9f565b5b509050615cc89190615daa565b5090565b8260028101928215615d00579160200282015b82811115615cff578251829060ff16905591602001919060010190615cdf565b5b509050615d0d9190615ddd565b5090565b61010060405190810160405280600073ffffffffffffffffffffffffffffffffffffffff168152602001615d43615e02565b815260200160008152602001600081525090565b61028060405190810160405280601490602082028038833980820191505090505090565b610300604051908101604052806006905b615d94615e25565b815260200190600190039081615d8c5790505090565b615dda91905b80821115615dd657600081816101000a81549063ffffffff021916905550600101615db0565b5090565b90565b615dff91905b80821115615dfb576000816000905550600101615de3565b5090565b90565b60a060405190810160405280600590602082028038833980820191505090505090565b608060405190810160405280600060ff168152602001600060ff168152602001600060ff168152602001600063ffffffff16815250905600a165627a7a72305820af503659deffee704736da1bdf335f7294dadf66e43e09832f6db151172fa5680029",
  "source": "pragma solidity ^0.4.24;\n\nimport \"./AdminPanel.sol\";\nimport \"./SafeMath.sol\";\n\n\ncontract CryptoMon is AdminPanel {\n\n    using SafeMath for uint8;\n\n    constructor() public {\n        seed = now;\n    }\n\n    function unbox()\n        external\n        payable\n    {\n        uint256 _modifier;\n        if (msg.value >= params[2]) {\n            _modifier = params[5];\n        } else if (msg.value >= params[1]) {\n            _modifier = params[4];\n        } else if (msg.value >= params[0]) {\n            _modifier = params[3];\n        } else {\n            revert();\n        }\n\n        firstLogin();\n\n        uint32[6] _ids;\n\n        for (uint256 i = 0; i < 6; i++) {\n            owner[monsters.length] = msg.sender;\n            uint256 _tmp = randInt(0, 1000-_modifier);\n            uint256 _modRarityMin;\n            uint256 _modRarityMax;\n            uint8 _rarity;\n\n            if (_tmp == 1) {\n                _modRarityMin = 17;\n                _modRarityMax = 21;\n                _rarity = 3;\n            } else if (_tmp < 11) {\n                _modRarityMin = 14;\n                _modRarityMax = 17;\n                _rarity = 2;\n            } else if (_tmp < 200) {\n                _modRarityMin = 11;\n                _modRarityMax = 14;\n                _rarity = 1;\n            } else {\n                _modRarityMin = 8;\n                _modRarityMax = 11;\n                _rarity = 0;\n            }\n\n            monsters.push(\n                Monster(\n                    uint8(randInt(_modRarityMin, _modRarityMax)),\n                    uint8(randInt(_modRarityMin, _modRarityMax)),\n                    uint8(randInt(_modRarityMin, _modRarityMax)),\n                    1,\n                    _rarity,\n                    0,\n                    false\n                )\n            );\n\n            emit Transfer(address(0), msg.sender, monsters.length - 1);\n            _ids[i] = uint32(monsters.length - 1);\n        }\n\n        emit Unboxed(msg.sender, _ids);\n\n        balances[msg.sender] = balances[msg.sender].add(6);\n        money[contractOwner] = money[contractOwner].add(msg.value);\n    }\n\n    function fight(uint32[5] _ids, uint256 _minBet)\n        external\n        payable\n    {\n        //Check that you actually payed at least your minimum bet and that you are not already waiting.\n        require(msg.value >= _minBet && isWaiting[msg.sender][0] == 100);\n        for (uint256 i = 0; i < 5; i++) {\n            //Check that you own all of the monsters you want to use to attack and that they aren't busy\n            require(owner[_ids[i]] == msg.sender && !monsters[_ids[i]].busy);\n            for (uint256 j = 0; j < 5; j++) {\n                //check that there aren't any duplicates in your squad\n                require(_ids[i] != _ids[j] || i == j);\n            }\n        }\n\n        //Sets the matchmaking level.\n        uint256 _level;\n        uint8[5] memory _tmp;\n        for (i = 0; i < 5; i++)\n            _tmp[i] = monsters[_ids[i]].lvl;\n\n        //Insertion sort algorithm\n        for (i = 1; i < 5; i++) {\n            uint8 temp = _tmp[i];\n            for (j = i - 1; j >= 0 && temp < _tmp[j]; j--)\n                _tmp[j+1] = _tmp[j];\n            _tmp[j + 1] = temp;\n        }\n\n        //The waiting queue has only 100 spaces, this means that its last index is 99, not 100.\n        _level = _tmp[2] - 1;\n\n        //Used to prevent underflow. More efficient than doing other checks\n        if (_level < params[6])\n            _level = params[6];\n\n        //Checks for every level in range.\n        for (i = _level - params[6]; i <= _level + params[6] && i < 100; i++) {\n\n            //Skips current range to save gas and prevent errors when using %0\n            if (waitingLength[i] == 0)\n                continue;\n\n            //Checks for every person in the current waiting level to find someone who has the same bet range as you.\n            //Starts to check from a random position in the array, to prevent unlucky people from never playing.\n            //Note that waiting is an array of mappings, this is because arrays are broken, and .length is not\n            //reset after deleting the last element.\n            uint256 _start = randInt(0, waitingLength[i]);\n            for (j = _start; j < waitingLength[i] + _start; j++) {\n                //j needs to be \"modulized\", to loop back in front of the array.\n                uint256 j_ = j % waitingLength[i];\n\n                //If it finds someone the fight starts and the functions returns.\n                if (\n                    waiting[i][j_].minBet <= msg.value &&\n                    waiting[i][j_].bet >= _minBet &&\n                    waiting[i][j_].addr != msg.sender\n                )\n                    return computeBattleResults(i, j_, _ids);\n            }\n        }\n\n        //If the contract couldn\"t find anyone, it puts you in the waiting list.\n        //All of your monsters are marked as busy.\n        for (i = 0; i < 5; i++)\n            monsters[_ids[0]].busy = true;\n\n        waiting[_level][waitingLength[_level]] = Defender(\n            msg.sender,\n            _ids,\n            _minBet,\n            msg.value\n        );\n\n        waitingLength[_level]++;\n\n        //Sets waiting state\n        isWaiting[msg.sender] = [_level, waitingLength[_level] - 1];\n    }\n\n    function stopWaiting()\n        external\n    {\n        uint256 _x = isWaiting[msg.sender][0];\n        require(_x != 100);\n        uint256 _y = isWaiting[msg.sender][1];\n\n        money[waiting[_x][_y].addr] = money[waiting[_x][_y].addr].add(waiting[_x][_y].bet);\n\n        for (uint256 i = 0; i < 5; i++)\n            monsters[waiting[_x][_y].deck[i]].busy = false;\n\n        waiting[_x][_y] = waiting[_x][waitingLength[_x] - 1];\n        waitingLength[_x]--;\n        isWaiting[msg.sender] = [100, 0];\n    }\n\n    function sellMonster(\n        uint32 _id,\n        uint256 _price\n    )\n        external\n    {\n        require((!monsters[_id].busy || inSale[_id] > 0) && owner[_id] == msg.sender);\n        inSale[_id] = _price;\n        monsters[_id].busy = (_price == 0) ? false : true;\n        emit ForSale(msg.sender, _id, _price);\n    }\n\n    function buyMonster(uint32 _id)\n        external\n        payable\n    {\n        require(inSale[_id] > 0 && msg.value >= inSale[_id]);\n        inSale[_id] = 0;\n        address owner_ = owner[_id];\n\n        uint256 _fees = msg.value.mul(params[9]) / 10000;\n        money[owner_] = money[owner_].add(msg.value).sub(_fees);\n        money[contractOwner] = money[contractOwner].add(_fees);\n\n        approved[_id] = msg.sender;\n        emit Approval(owner_, msg.sender, _id);\n\n        monsters[_id].busy = false;\n\n        transferFrom(owner_, msg.sender, _id);\n    }\n\n    function withdraw()\n        external\n        returns(uint)\n    {\n        require(money[msg.sender] > 0);\n        uint256 _amount = money[msg.sender];\n        money[msg.sender] = 0;\n        msg.sender.transfer(_amount);\n        return _amount;\n    }\n\n    function lvlUp (\n        uint32[] _ids,\n        uint8[] _atkMod,\n        uint8[] _defMod,\n        uint8[] _spdMod\n    )\n        external\n    {\n        require(\n            _ids.length == _atkMod.length &&\n            _atkMod.length == _defMod.length &&\n            _defMod.length == _spdMod.length\n        );\n\n        uint8 _skillsAvailable;\n\n        for (uint256 i = 0; i < _ids.length; i++) {\n            _skillsAvailable = 0;\n            require(owner[_ids[i]] == msg.sender);\n\n            while ( //TODO Wtf, can this be resolved without the need for a while loop?\n                ((uint256(monsters[_ids[i]].lvl)**3)/5) <= monsters[_ids[i]].exp &&\n                monsters[_ids[i]].lvl < 100\n            ) {\n                monsters[_ids[i]].lvl++;\n                _skillsAvailable += uint8(params[10]);\n            }\n\n\n            require(_atkMod[i].add(_defMod[i]).add(_spdMod[i]) <= _skillsAvailable);\n\n            uint256 _cap = monsters[_ids[i]].lvl/11*12+20;\n\n            require(\n                _cap >= monsters[_ids[i]].atk.add(_atkMod[i]) &&\n                _cap >= monsters[_ids[i]].def.add(_defMod[i]) &&\n                _cap >= monsters[_ids[i]].spd.add(_spdMod[i])\n            );\n\n            // No need to use safemath: overflows are checked for \n            // in the require above.\n            monsters[_ids[i]].atk += _atkMod[i];\n            monsters[_ids[i]].def += _defMod[i];\n            monsters[_ids[i]].spd += _spdMod[i];\n\n            emit Upgraded(\n                _ids[i],\n                _atkMod[i],\n                _defMod[i],\n                _spdMod[i]\n            );\n        }\n    }\n}\n",
  "sourcePath": "/home/nicola/Desktop/Repo/cryptomon-contracts/contracts/CryptoMon.sol",
  "compiler": {
    "name": "solc",
    "version": "0.4.24+commit.e67f0147.Emscripten.clang"
  },
  "schemaVersion": "2.0.1",
  "updatedAt": "2018-08-19T21:00:52.514Z"
}