{
  "contractName": "CryptoMon",
  "abi": [
    {
      "constant": true,
      "inputs": [
        {
          "name": "interfaceID",
          "type": "bytes4"
        }
      ],
      "name": "supportsInterface",
      "outputs": [
        {
          "name": "",
          "type": "bool"
        }
      ],
      "payable": false,
      "stateMutability": "view",
      "type": "function"
    },
    {
      "constant": true,
      "inputs": [
        {
          "name": "_tokenId",
          "type": "uint256"
        }
      ],
      "name": "getApproved",
      "outputs": [
        {
          "name": "",
          "type": "address"
        }
      ],
      "payable": false,
      "stateMutability": "view",
      "type": "function"
    },
    {
      "constant": true,
      "inputs": [
        {
          "name": "",
          "type": "uint256"
        },
        {
          "name": "",
          "type": "uint256"
        }
      ],
      "name": "waiting",
      "outputs": [
        {
          "name": "addr",
          "type": "address"
        },
        {
          "name": "minBet",
          "type": "uint256"
        },
        {
          "name": "bet",
          "type": "uint256"
        }
      ],
      "payable": false,
      "stateMutability": "view",
      "type": "function"
    },
    {
      "constant": false,
      "inputs": [
        {
          "name": "_approved",
          "type": "address"
        },
        {
          "name": "_tokenId",
          "type": "uint256"
        }
      ],
      "name": "approve",
      "outputs": [],
      "payable": true,
      "stateMutability": "payable",
      "type": "function"
    },
    {
      "constant": true,
      "inputs": [
        {
          "name": "",
          "type": "address"
        }
      ],
      "name": "money",
      "outputs": [
        {
          "name": "",
          "type": "uint256"
        }
      ],
      "payable": false,
      "stateMutability": "view",
      "type": "function"
    },
    {
      "constant": false,
      "inputs": [
        {
          "name": "_newOwner",
          "type": "address"
        }
      ],
      "name": "nominateNewOwner",
      "outputs": [],
      "payable": false,
      "stateMutability": "nonpayable",
      "type": "function"
    },
    {
      "constant": true,
      "inputs": [],
      "name": "totalSupply",
      "outputs": [
        {
          "name": "",
          "type": "uint256"
        }
      ],
      "payable": false,
      "stateMutability": "view",
      "type": "function"
    },
    {
      "constant": false,
      "inputs": [
        {
          "name": "_from",
          "type": "address"
        },
        {
          "name": "_to",
          "type": "address"
        },
        {
          "name": "_tokenId",
          "type": "uint256"
        }
      ],
      "name": "transferFrom",
      "outputs": [],
      "payable": true,
      "stateMutability": "payable",
      "type": "function"
    },
    {
      "constant": true,
      "inputs": [
        {
          "name": "_owner",
          "type": "address"
        },
        {
          "name": "_index",
          "type": "uint256"
        }
      ],
      "name": "tokenOfOwnerByIndex",
      "outputs": [
        {
          "name": "",
          "type": "uint256"
        }
      ],
      "payable": false,
      "stateMutability": "view",
      "type": "function"
    },
    {
      "constant": false,
      "inputs": [
        {
          "name": "_from",
          "type": "address"
        },
        {
          "name": "_to",
          "type": "address"
        },
        {
          "name": "_tokenId",
          "type": "uint256"
        }
      ],
      "name": "safeTransferFrom",
      "outputs": [],
      "payable": true,
      "stateMutability": "payable",
      "type": "function"
    },
    {
      "constant": true,
      "inputs": [
        {
          "name": "_index",
          "type": "uint256"
        }
      ],
      "name": "tokenByIndex",
      "outputs": [
        {
          "name": "",
          "type": "uint256"
        }
      ],
      "payable": false,
      "stateMutability": "view",
      "type": "function"
    },
    {
      "constant": false,
      "inputs": [
        {
          "name": "_atk",
          "type": "uint8"
        },
        {
          "name": "_def",
          "type": "uint8"
        },
        {
          "name": "_spd",
          "type": "uint8"
        },
        {
          "name": "_lvl",
          "type": "uint8"
        },
        {
          "name": "_rarity",
          "type": "uint8"
        },
        {
          "name": "_exp",
          "type": "uint256"
        }
      ],
      "name": "createCustomMonster",
      "outputs": [
        {
          "name": "",
          "type": "uint32"
        }
      ],
      "payable": false,
      "stateMutability": "nonpayable",
      "type": "function"
    },
    {
      "constant": true,
      "inputs": [
        {
          "name": "",
          "type": "uint256"
        }
      ],
      "name": "inSale",
      "outputs": [
        {
          "name": "",
          "type": "uint256"
        }
      ],
      "payable": false,
      "stateMutability": "view",
      "type": "function"
    },
    {
      "constant": true,
      "inputs": [
        {
          "name": "_tokenId",
          "type": "uint256"
        }
      ],
      "name": "ownerOf",
      "outputs": [
        {
          "name": "",
          "type": "address"
        }
      ],
      "payable": false,
      "stateMutability": "view",
      "type": "function"
    },
    {
      "constant": true,
      "inputs": [
        {
          "name": "",
          "type": "uint256"
        }
      ],
      "name": "waitingLength",
      "outputs": [
        {
          "name": "",
          "type": "uint256"
        }
      ],
      "payable": false,
      "stateMutability": "view",
      "type": "function"
    },
    {
      "constant": true,
      "inputs": [
        {
          "name": "_owner",
          "type": "address"
        }
      ],
      "name": "balanceOf",
      "outputs": [
        {
          "name": "",
          "type": "uint256"
        }
      ],
      "payable": false,
      "stateMutability": "view",
      "type": "function"
    },
    {
      "constant": false,
      "inputs": [],
      "name": "acceptOwnership",
      "outputs": [],
      "payable": false,
      "stateMutability": "nonpayable",
      "type": "function"
    },
    {
      "constant": false,
      "inputs": [
        {
          "name": "_operator",
          "type": "address"
        },
        {
          "name": "_approved",
          "type": "bool"
        }
      ],
      "name": "setApprovalForAll",
      "outputs": [],
      "payable": false,
      "stateMutability": "nonpayable",
      "type": "function"
    },
    {
      "constant": false,
      "inputs": [
        {
          "name": "_from",
          "type": "address"
        },
        {
          "name": "_to",
          "type": "address"
        },
        {
          "name": "_tokenId",
          "type": "uint256"
        },
        {
          "name": "_data",
          "type": "bytes"
        }
      ],
      "name": "safeTransferFrom",
      "outputs": [],
      "payable": true,
      "stateMutability": "payable",
      "type": "function"
    },
    {
      "constant": true,
      "inputs": [
        {
          "name": "",
          "type": "uint256"
        }
      ],
      "name": "monsters",
      "outputs": [
        {
          "name": "atk",
          "type": "uint8"
        },
        {
          "name": "def",
          "type": "uint8"
        },
        {
          "name": "spd",
          "type": "uint8"
        },
        {
          "name": "lvl",
          "type": "uint8"
        },
        {
          "name": "rarity",
          "type": "uint8"
        },
        {
          "name": "exp",
          "type": "uint256"
        },
        {
          "name": "busy",
          "type": "bool"
        }
      ],
      "payable": false,
      "stateMutability": "view",
      "type": "function"
    },
    {
      "constant": false,
      "inputs": [
        {
          "name": "_parameter",
          "type": "uint8"
        },
        {
          "name": "_newValue",
          "type": "uint16"
        }
      ],
      "name": "changeParameter",
      "outputs": [
        {
          "name": "",
          "type": "uint256"
        }
      ],
      "payable": false,
      "stateMutability": "nonpayable",
      "type": "function"
    },
    {
      "constant": true,
      "inputs": [
        {
          "name": "_owner",
          "type": "address"
        },
        {
          "name": "_operator",
          "type": "address"
        }
      ],
      "name": "isApprovedForAll",
      "outputs": [
        {
          "name": "",
          "type": "bool"
        }
      ],
      "payable": false,
      "stateMutability": "view",
      "type": "function"
    },
    {
      "constant": true,
      "inputs": [],
      "name": "ERC721_RECEIVED",
      "outputs": [
        {
          "name": "",
          "type": "bytes4"
        }
      ],
      "payable": false,
      "stateMutability": "view",
      "type": "function"
    },
    {
      "constant": false,
      "inputs": [
        {
          "name": "_from",
          "type": "address"
        },
        {
          "name": "_tokenId",
          "type": "uint256"
        },
        {
          "name": "_data",
          "type": "bytes"
        }
      ],
      "name": "onERC721Received",
      "outputs": [
        {
          "name": "",
          "type": "bytes4"
        }
      ],
      "payable": false,
      "stateMutability": "nonpayable",
      "type": "function"
    },
    {
      "inputs": [],
      "payable": false,
      "stateMutability": "nonpayable",
      "type": "constructor"
    },
    {
      "anonymous": false,
      "inputs": [
        {
          "indexed": true,
          "name": "_player",
          "type": "address"
        },
        {
          "indexed": false,
          "name": "_id",
          "type": "uint32"
        },
        {
          "indexed": true,
          "name": "_price",
          "type": "uint256"
        }
      ],
      "name": "ForSale",
      "type": "event"
    },
    {
      "anonymous": false,
      "inputs": [
        {
          "indexed": true,
          "name": "_attacker",
          "type": "address"
        },
        {
          "indexed": true,
          "name": "_defender",
          "type": "address"
        },
        {
          "indexed": false,
          "name": "_data",
          "type": "uint32[40]"
        },
        {
          "indexed": false,
          "name": "_bonusWinner",
          "type": "uint8"
        },
        {
          "indexed": true,
          "name": "_winnerId",
          "type": "uint256"
        },
        {
          "indexed": false,
          "name": "_moneyWon",
          "type": "uint256"
        }
      ],
      "name": "Results",
      "type": "event"
    },
    {
      "anonymous": false,
      "inputs": [
        {
          "indexed": true,
          "name": "_parameter",
          "type": "uint8"
        },
        {
          "indexed": false,
          "name": "_oldValue",
          "type": "uint256"
        },
        {
          "indexed": false,
          "name": "_newValue",
          "type": "uint256"
        }
      ],
      "name": "Changed",
      "type": "event"
    },
    {
      "anonymous": false,
      "inputs": [
        {
          "indexed": true,
          "name": "_from",
          "type": "address"
        },
        {
          "indexed": true,
          "name": "_to",
          "type": "address"
        },
        {
          "indexed": true,
          "name": "_tokenId",
          "type": "uint256"
        }
      ],
      "name": "Transfer",
      "type": "event"
    },
    {
      "anonymous": false,
      "inputs": [
        {
          "indexed": true,
          "name": "_owner",
          "type": "address"
        },
        {
          "indexed": true,
          "name": "_approved",
          "type": "address"
        },
        {
          "indexed": true,
          "name": "_tokenId",
          "type": "uint256"
        }
      ],
      "name": "Approval",
      "type": "event"
    },
    {
      "anonymous": false,
      "inputs": [
        {
          "indexed": true,
          "name": "_owner",
          "type": "address"
        },
        {
          "indexed": true,
          "name": "_operator",
          "type": "address"
        },
        {
          "indexed": false,
          "name": "_approved",
          "type": "bool"
        }
      ],
      "name": "ApprovalForAll",
      "type": "event"
    },
    {
      "anonymous": false,
      "inputs": [
        {
          "indexed": true,
          "name": "_from",
          "type": "address"
        },
        {
          "indexed": true,
          "name": "_to",
          "type": "address"
        }
      ],
      "name": "OwnershipTransferred",
      "type": "event"
    },
    {
      "constant": false,
      "inputs": [],
      "name": "unbox",
      "outputs": [],
      "payable": true,
      "stateMutability": "payable",
      "type": "function"
    },
    {
      "constant": false,
      "inputs": [
        {
          "name": "_ids",
          "type": "uint32[5]"
        },
        {
          "name": "_minBet",
          "type": "uint256"
        }
      ],
      "name": "fight",
      "outputs": [],
      "payable": true,
      "stateMutability": "payable",
      "type": "function"
    },
    {
      "constant": false,
      "inputs": [],
      "name": "stopWaiting",
      "outputs": [],
      "payable": false,
      "stateMutability": "nonpayable",
      "type": "function"
    },
    {
      "constant": false,
      "inputs": [
        {
          "name": "_id",
          "type": "uint32"
        },
        {
          "name": "_price",
          "type": "uint256"
        }
      ],
      "name": "sellMonster",
      "outputs": [],
      "payable": false,
      "stateMutability": "nonpayable",
      "type": "function"
    },
    {
      "constant": false,
      "inputs": [
        {
          "name": "_id",
          "type": "uint32"
        }
      ],
      "name": "buyMonster",
      "outputs": [],
      "payable": true,
      "stateMutability": "payable",
      "type": "function"
    },
    {
      "constant": false,
      "inputs": [],
      "name": "withdraw",
      "outputs": [
        {
          "name": "",
          "type": "uint256"
        }
      ],
      "payable": false,
      "stateMutability": "nonpayable",
      "type": "function"
    },
    {
      "constant": false,
      "inputs": [
        {
          "name": "_ids",
          "type": "uint32[]"
        },
        {
          "name": "_atkMod",
          "type": "uint8[]"
        },
        {
          "name": "_defMod",
          "type": "uint8[]"
        },
        {
          "name": "_spdMod",
          "type": "uint8[]"
        }
      ],
      "name": "lvlUp",
      "outputs": [],
      "payable": false,
      "stateMutability": "nonpayable",
      "type": "function"
    }
  ],
  "bytecode": "0x608060405261018060405190810160405280600261ffff168152602001600561ffff168152602001600861ffff168152602001600061ffff168152602001606461ffff16815260200160c861ffff168152602001600561ffff168152602001606461ffff168152602001602861ffff16815260200161017761ffff168152602001600161ffff168152602001600161ffff1681525060ce90600c620000a692919062000102565b50348015620000b457600080fd5b50336000806101000a81548173ffffffffffffffffffffffffffffffffffffffff021916908373ffffffffffffffffffffffffffffffffffffffff16021790555042600381905550620001da565b82600c600f01601090048101928215620001935791602002820160005b838211156200016157835183826101000a81548161ffff021916908361ffff16021790555092602001926002016020816001010492830192600103026200011f565b8015620001915782816101000a81549061ffff021916905560020160208160010104928301926001030262000161565b505b509050620001a29190620001a6565b5090565b620001d791905b80821115620001d357600081816101000a81549061ffff021916905550600101620001ad565b5090565b90565b615ec880620001ea6000396000f30060806040526004361061018b576000357c0100000000000000000000000000000000000000000000000000000000900463ffffffff16806301ffc9a714610190578063081812fc146101f4578063082dc71014610261578063095ea7b3146102e657806315e1f7cd146103265780631627540c1461037d57806318160ddd146103c057806323b872dd146103eb5780632f745c591461044b5780633ccfd60b146104ac57806342842e0e146104d75780634f6ccce7146105375780635fc04d5e146105785780636068f374146106065780636352211e146106475780636ae535e6146106b45780636cee4e6c146106de57806370a082311461071f57806379ba5097146107765780638762c3691461078d578063a22cb465146107ca578063a65537e714610819578063a74ba9f81461083f578063b88d4fde14610849578063c0576b73146108ef578063d1deddb41461097c578063e985e9c5146109ce578063ea3e941214610a49578063ecc98ce414610a60578063f0b9e5ba14610ac9578063fc236d8614610b80575b600080fd5b34801561019c57600080fd5b506101da60048036038101908080357bffffffffffffffffffffffffffffffffffffffffffffffffffffffff19169060200190929190505050610c03565b604051808215151515815260200191505060405180910390f35b34801561020057600080fd5b5061021f60048036038101908080359060200190929190505050611025565b604051808273ffffffffffffffffffffffffffffffffffffffff1673ffffffffffffffffffffffffffffffffffffffff16815260200191505060405180910390f35b34801561026d57600080fd5b506102966004803603810190808035906020019092919080359060200190929190505050611075565b604051808473ffffffffffffffffffffffffffffffffffffffff1673ffffffffffffffffffffffffffffffffffffffff168152602001838152602001828152602001935050505060405180910390f35b610324600480360381019080803573ffffffffffffffffffffffffffffffffffffffff169060200190929190803590602001909291905050506110ce565b005b34801561033257600080fd5b50610367600480360381019080803573ffffffffffffffffffffffffffffffffffffffff16906020019092919050505061131d565b6040518082815260200191505060405180910390f35b34801561038957600080fd5b506103be600480360381019080803573ffffffffffffffffffffffffffffffffffffffff169060200190929190505050611335565b005b3480156103cc57600080fd5b506103d56113d4565b6040518082815260200191505060405180910390f35b610449600480360381019080803573ffffffffffffffffffffffffffffffffffffffff169060200190929190803573ffffffffffffffffffffffffffffffffffffffff169060200190929190803590602001909291905050506113e1565b005b34801561045757600080fd5b50610496600480360381019080803573ffffffffffffffffffffffffffffffffffffffff16906020019092919080359060200190929190505050611729565b6040518082815260200191505060405180910390f35b3480156104b857600080fd5b506104c1611735565b6040518082815260200191505060405180910390f35b610535600480360381019080803573ffffffffffffffffffffffffffffffffffffffff169060200190929190803573ffffffffffffffffffffffffffffffffffffffff1690602001909291908035906020019092919050505061185b565b005b34801561054357600080fd5b5061056260048036038101908080359060200190929190505050611a1a565b6040518082815260200191505060405180910390f35b34801561058457600080fd5b506105e4600480360381019080803560ff169060200190929190803560ff169060200190929190803560ff169060200190929190803560ff169060200190929190803560ff16906020019092919080359060200190929190505050611ad0565b604051808263ffffffff1663ffffffff16815260200191505060405180910390f35b34801561061257600080fd5b5061063160048036038101908080359060200190929190505050611d3c565b6040518082815260200191505060405180910390f35b34801561065357600080fd5b5061067260048036038101908080359060200190929190505050611d54565b604051808273ffffffffffffffffffffffffffffffffffffffff1673ffffffffffffffffffffffffffffffffffffffff16815260200191505060405180910390f35b6106dc6004803603810190808060a00190919291929080359060200190929190505050611dff565b005b3480156106ea57600080fd5b50610709600480360381019080803590602001909291905050506125ff565b6040518082815260200191505060405180910390f35b34801561072b57600080fd5b50610760600480360381019080803573ffffffffffffffffffffffffffffffffffffffff169060200190929190505050612619565b6040518082815260200191505060405180910390f35b34801561078257600080fd5b5061078b61269d565b005b34801561079957600080fd5b506107c8600480360381019080803563ffffffff169060200190929190803590602001909291905050506127fa565b005b3480156107d657600080fd5b50610817600480360381019080803573ffffffffffffffffffffffffffffffffffffffff169060200190929190803515159060200190929190505050612981565b005b61083d600480360381019080803563ffffffff169060200190929190505050612a82565b005b610847612e08565b005b6108ed600480360381019080803573ffffffffffffffffffffffffffffffffffffffff169060200190929190803573ffffffffffffffffffffffffffffffffffffffff16906020019092919080359060200190929190803590602001908201803590602001908080601f0160208091040260200160405190810160405280939291908181526020018383808284378201915050505050509192919290505050613428565b005b3480156108fb57600080fd5b5061091a600480360381019080803590602001909291905050506137a5565b604051808860ff1660ff1681526020018760ff1660ff1681526020018660ff1660ff1681526020018560ff1660ff1681526020018460ff1660ff1681526020018381526020018215151515815260200197505050505050505060405180910390f35b34801561098857600080fd5b506109b8600480360381019080803560ff169060200190929190803561ffff169060200190929190505050613844565b6040518082815260200191505060405180910390f35b3480156109da57600080fd5b50610a2f600480360381019080803573ffffffffffffffffffffffffffffffffffffffff169060200190929190803573ffffffffffffffffffffffffffffffffffffffff169060200190929190505050613979565b604051808215151515815260200191505060405180910390f35b348015610a5557600080fd5b50610a5e613a0d565b005b348015610a6c57600080fd5b50610a75613ce5565b60405180827bffffffffffffffffffffffffffffffffffffffffffffffffffffffff19167bffffffffffffffffffffffffffffffffffffffffffffffffffffffff1916815260200191505060405180910390f35b348015610ad557600080fd5b50610b2c600480360381019080803573ffffffffffffffffffffffffffffffffffffffff16906020019092919080359060200190929190803590602001908201803590602001919091929391929390505050613d0c565b60405180827bffffffffffffffffffffffffffffffffffffffffffffffffffffffff19167bffffffffffffffffffffffffffffffffffffffffffffffffffffffff1916815260200191505060405180910390f35b348015610b8c57600080fd5b50610c01600480360381019080803590602001908201803590602001919091929391929390803590602001908201803590602001919091929391929390803590602001908201803590602001919091929391929390803590602001908201803590602001919091929391929390505050613d73565b005b600080600060405180807f737570706f727473496e7465726661636528627974657334290000000000000081525060190190506040518091039020915060405180807f746f6b656e4f664f776e65724279496e64657828616464726573732c75696e7481526020017f32353629000000000000000000000000000000000000000000000000000000008152506024019050604051809103902060405180807f746f6b656e4279496e6465782875696e743235362900000000000000000000008152506015019050604051809103902060405180807f746f74616c537570706c79282900000000000000000000000000000000000000815250600d019050604051809103902060405180807f736166655472616e7366657246726f6d28616464726573732c6164647265737381526020017f2c75696e743235362c6279746573290000000000000000000000000000000000815250602f019050604051809103902060405180807f736166655472616e7366657246726f6d28616464726573732c6164647265737381526020017f2c75696e743235362900000000000000000000000000000000000000000000008152506029019050604051809103902060405180807f7472616e7366657246726f6d28616464726573732c616464726573732c75696e81526020017f74323536290000000000000000000000000000000000000000000000000000008152506025019050604051809103902060405180807f6973417070726f766564466f72416c6c28616464726573732c6164647265737381526020017f29000000000000000000000000000000000000000000000000000000000000008152506021019050604051809103902060405180807f736574417070726f76616c466f72416c6c28616464726573732c626f6f6c2900815250601f019050604051809103902060405180807f676574417070726f7665642875696e74323536290000000000000000000000008152506014019050604051809103902060405180807f617070726f766528616464726573732c75696e743235362900000000000000008152506018019050604051809103902060405180807f6f776e65724f662875696e7432353629000000000000000000000000000000008152506010019050604051809103902060405180807f62616c616e63654f6628616464726573732900000000000000000000000000008152506012019050604051809103902018181818181818181818189050817bffffffffffffffffffffffffffffffffffffffffffffffffffffffff1916847bffffffffffffffffffffffffffffffffffffffffffffffffffffffff1916148061101c5750807bffffffffffffffffffffffffffffffffffffffffffffffffffffffff1916847bffffffffffffffffffffffffffffffffffffffffffffffffffffffff1916145b92505050919050565b60006002805490508210151561103a57600080fd5b60d2600083815260200190815260200160002060009054906101000a900473ffffffffffffffffffffffffffffffffffffffff169050919050565b60058260648110151561108457fe5b01602052806000526040600020600091509150508060000160009054906101000a900473ffffffffffffffffffffffffffffffffffffffff16908060020154908060030154905083565b33818173ffffffffffffffffffffffffffffffffffffffff1660cf600083815260200190815260200160002060009054906101000a900473ffffffffffffffffffffffffffffffffffffffff1673ffffffffffffffffffffffffffffffffffffffff16148061119b57508173ffffffffffffffffffffffffffffffffffffffff1660d2600083815260200190815260200160002060009054906101000a900473ffffffffffffffffffffffffffffffffffffffff1673ffffffffffffffffffffffffffffffffffffffff16145b8061125f575060d1600060cf600084815260200190815260200160002060009054906101000a900473ffffffffffffffffffffffffffffffffffffffff1673ffffffffffffffffffffffffffffffffffffffff1673ffffffffffffffffffffffffffffffffffffffff16815260200190815260200160002060008373ffffffffffffffffffffffffffffffffffffffff1673ffffffffffffffffffffffffffffffffffffffff16815260200190815260200160002060009054906101000a900460ff165b151561126a57600080fd5b8360d2600085815260200190815260200160002060006101000a81548173ffffffffffffffffffffffffffffffffffffffff021916908373ffffffffffffffffffffffffffffffffffffffff160217905550828473ffffffffffffffffffffffffffffffffffffffff163373ffffffffffffffffffffffffffffffffffffffff167f8c5be1e5ebec7d5bd14f71427d1e84f3dd0314c0f7b2291e5b200ac8c7c3b92560405160405180910390a450505050565b60d36020528060005260406000206000915090505481565b6000809054906101000a900473ffffffffffffffffffffffffffffffffffffffff1673ffffffffffffffffffffffffffffffffffffffff163373ffffffffffffffffffffffffffffffffffffffff1614151561139057600080fd5b80600160006101000a81548173ffffffffffffffffffffffffffffffffffffffff021916908373ffffffffffffffffffffffffffffffffffffffff16021790555050565b6000600280549050905090565b33818173ffffffffffffffffffffffffffffffffffffffff1660cf600083815260200190815260200160002060009054906101000a900473ffffffffffffffffffffffffffffffffffffffff1673ffffffffffffffffffffffffffffffffffffffff1614806114ae57508173ffffffffffffffffffffffffffffffffffffffff1660d2600083815260200190815260200160002060009054906101000a900473ffffffffffffffffffffffffffffffffffffffff1673ffffffffffffffffffffffffffffffffffffffff16145b80611572575060d1600060cf600084815260200190815260200160002060009054906101000a900473ffffffffffffffffffffffffffffffffffffffff1673ffffffffffffffffffffffffffffffffffffffff1673ffffffffffffffffffffffffffffffffffffffff16815260200190815260200160002060008373ffffffffffffffffffffffffffffffffffffffff1673ffffffffffffffffffffffffffffffffffffffff16815260200190815260200160002060009054906101000a900460ff165b151561157d57600080fd5b60cf600084815260200190815260200160002060009054906101000a900473ffffffffffffffffffffffffffffffffffffffff1673ffffffffffffffffffffffffffffffffffffffff168573ffffffffffffffffffffffffffffffffffffffff161480156116185750600073ffffffffffffffffffffffffffffffffffffffff168473ffffffffffffffffffffffffffffffffffffffff1614155b8015611628575060028054905083105b801561165f575060028381548110151561163e57fe5b906000526020600020906003020160020160009054906101000a900460ff16155b151561166a57600080fd5b8360cf600085815260200190815260200160002060006101000a81548173ffffffffffffffffffffffffffffffffffffffff021916908373ffffffffffffffffffffffffffffffffffffffff1602179055506116c76000846110ce565b828473ffffffffffffffffffffffffffffffffffffffff168673ffffffffffffffffffffffffffffffffffffffff167fddf252ad1be2c89b69c2b068fc378daa952ba7f163c4a11628f55a4df523b3ef60405160405180910390a45050505050565b60006001905092915050565b600080600060d360003373ffffffffffffffffffffffffffffffffffffffff1673ffffffffffffffffffffffffffffffffffffffff1681526020019081526020016000205411151561178657600080fd5b60d360003373ffffffffffffffffffffffffffffffffffffffff1673ffffffffffffffffffffffffffffffffffffffff168152602001908152602001600020549050600060d360003373ffffffffffffffffffffffffffffffffffffffff1673ffffffffffffffffffffffffffffffffffffffff168152602001908152602001600020819055503373ffffffffffffffffffffffffffffffffffffffff166108fc829081150290604051600060405180830381858888f19350505050158015611853573d6000803e3d6000fd5b508091505090565b33818173ffffffffffffffffffffffffffffffffffffffff1660cf600083815260200190815260200160002060009054906101000a900473ffffffffffffffffffffffffffffffffffffffff1673ffffffffffffffffffffffffffffffffffffffff16148061192857508173ffffffffffffffffffffffffffffffffffffffff1660d2600083815260200190815260200160002060009054906101000a900473ffffffffffffffffffffffffffffffffffffffff1673ffffffffffffffffffffffffffffffffffffffff16145b806119ec575060d1600060cf600084815260200190815260200160002060009054906101000a900473ffffffffffffffffffffffffffffffffffffffff1673ffffffffffffffffffffffffffffffffffffffff1673ffffffffffffffffffffffffffffffffffffffff16815260200190815260200160002060008373ffffffffffffffffffffffffffffffffffffffff1673ffffffffffffffffffffffffffffffffffffffff16815260200190815260200160002060009054906101000a900460ff165b15156119f757600080fd5b611a138585856020604051908101604052806000815250613428565b5050505050565b60003073ffffffffffffffffffffffffffffffffffffffff166318160ddd6040518163ffffffff167c0100000000000000000000000000000000000000000000000000000000028152600401602060405180830381600087803b158015611a8057600080fd5b505af1158015611a94573d6000803e3d6000fd5b505050506040513d6020811015611aaa57600080fd5b810190808051906020019092919050505082101515611ac857600080fd5b819050919050565b60008060009054906101000a900473ffffffffffffffffffffffffffffffffffffffff1673ffffffffffffffffffffffffffffffffffffffff163373ffffffffffffffffffffffffffffffffffffffff16141515611b2d57600080fd5b600260e0604051908101604052808960ff1681526020018860ff1681526020018760ff1681526020018660ff1681526020018560ff168152602001848152602001600015158152509080600181540180825580915050906001820390600052602060002090600302016000909192909190915060008201518160000160006101000a81548160ff021916908360ff16021790555060208201518160000160016101000a81548160ff021916908360ff16021790555060408201518160000160026101000a81548160ff021916908360ff16021790555060608201518160000160036101000a81548160ff021916908360ff16021790555060808201518160000160046101000a81548160ff021916908360ff16021790555060a0820151816001015560c08201518160020160006101000a81548160ff0219169083151502179055505050503360cf6000600280549050815260200190815260200160002060006101000a81548173ffffffffffffffffffffffffffffffffffffffff021916908373ffffffffffffffffffffffffffffffffffffffff1602179055506002805490503373ffffffffffffffffffffffffffffffffffffffff16600073ffffffffffffffffffffffffffffffffffffffff167fddf252ad1be2c89b69c2b068fc378daa952ba7f163c4a11628f55a4df523b3ef60405160405180910390a460028054905090509695505050505050565b60d46020528060005260406000206000915090505481565b60008073ffffffffffffffffffffffffffffffffffffffff1660cf600084815260200190815260200160002060009054906101000a900473ffffffffffffffffffffffffffffffffffffffff1673ffffffffffffffffffffffffffffffffffffffff1614151515611dc457600080fd5b60cf600083815260200190815260200160002060009054906101000a900473ffffffffffffffffffffffffffffffffffffffff169050919050565b6000806000611e0c615bde565b6000806000873410158015611e6f5750606460cd60003373ffffffffffffffffffffffffffffffffffffffff1673ffffffffffffffffffffffffffffffffffffffff1681526020019081526020016000206000600281101515611e6b57fe5b0154145b1515611e7a57600080fd5b600096505b6005871015611fe5573373ffffffffffffffffffffffffffffffffffffffff1660cf60008b8a600581101515611eb157fe5b602002013563ffffffff1663ffffffff16815260200190815260200160002060009054906101000a900473ffffffffffffffffffffffffffffffffffffffff1673ffffffffffffffffffffffffffffffffffffffff16148015611f5d575060028988600581101515611f1f57fe5b602002013563ffffffff1663ffffffff16815481101515611f3c57fe5b906000526020600020906003020160020160009054906101000a900460ff16155b1515611f6857600080fd5b600095505b6005861015611fd8578886600581101515611f8457fe5b602002013563ffffffff1663ffffffff168988600581101515611fa357fe5b602002013563ffffffff1663ffffffff16141580611fc057508587145b1515611fcb57600080fd5b8580600101965050611f6d565b8680600101975050611e7f565b600096505b600587101561206b576002898860058110151561200357fe5b602002013563ffffffff1663ffffffff1681548110151561202057fe5b906000526020600020906003020160000160039054906101000a900460ff16848860058110151561204d57fe5b602002019060ff16908160ff16815250508680600101975050611fea565b600196505b600587101561213557838760058110151561208757fe5b602002015192506001870395505b600086101580156120bd575083866005811015156120af57fe5b602002015160ff168360ff16105b156121055783866005811015156120d057fe5b602002015184600188016005811015156120e657fe5b602002019060ff16908160ff1681525050858060019003965050612095565b82846001880160058110151561211757fe5b602002019060ff16908160ff16815250508680600101975050612070565b600184600260058110151561214657fe5b60200201510360ff16945060ce6006600c8110151561216157fe5b601091828204019190066002029054906101000a900461ffff1661ffff168510156121b75760ce6006600c8110151561219657fe5b601091828204019190066002029054906101000a900461ffff1661ffff1694505b60ce6006600c811015156121c757fe5b601091828204019190066002029054906101000a900461ffff1661ffff16850396505b60ce6006600c811015156121fa57fe5b601091828204019190066002029054906101000a900461ffff1661ffff16850187111580156122295750606487105b156123ce57600060698860648110151561223f57fe5b0154141561224c576123c1565b612267600060698960648110151561226057fe5b01546143bf565b91508195505b8160698860648110151561227d57fe5b0154018610156123c05760698760648110151561229657fe5b0154868115156122a257fe5b069050346005886064811015156122b557fe5b01600083815260200190815260200160002060020154111580156122fd5750876005886064811015156122e457fe5b0160008381526020019081526020016000206003015410155b801561237957503373ffffffffffffffffffffffffffffffffffffffff1660058860648110151561232a57fe5b01600083815260200190815260200160002060000160009054906101000a900473ffffffffffffffffffffffffffffffffffffffff1673ffffffffffffffffffffffffffffffffffffffff1614155b156123b3576123ae87828b6005806020026040519081016040528092919082600560200280828437820191505050505061442b565b6125f4565b858060010196505061226d565b5b86806001019750506121ea565b600096505b600587101561244157600160028a60006005811015156123ef57fe5b602002013563ffffffff1663ffffffff1681548110151561240c57fe5b906000526020600020906003020160020160006101000a81548160ff02191690831515021790555086806001019750506123d3565b6080604051908101604052803373ffffffffffffffffffffffffffffffffffffffff1681526020018a600580602002604051908101604052809291908260056020028082843782019150505050508152602001898152602001348152506005866064811015156124ad57fe5b0160006069886064811015156124bf57fe5b0154815260200190815260200160002060008201518160000160006101000a81548173ffffffffffffffffffffffffffffffffffffffff021916908373ffffffffffffffffffffffffffffffffffffffff16021790555060208201518160010190600561252d929190615c01565b50604082015181600201556060820151816003015590505060698560648110151561255457fe5b016000815480929190600101919050555061257a3460045461514e90919063ffffffff16565b60048190555060408051908101604052808681526020016069876064811015156125a057fe5b015481525060cd60003373ffffffffffffffffffffffffffffffffffffffff1673ffffffffffffffffffffffffffffffffffffffff1681526020019081526020016000209060026125f2929190615ca4565b505b505050505050505050565b60698160648110151561260e57fe5b016000915090505481565b60008073ffffffffffffffffffffffffffffffffffffffff168273ffffffffffffffffffffffffffffffffffffffff161415151561265657600080fd5b60d060008373ffffffffffffffffffffffffffffffffffffffff1673ffffffffffffffffffffffffffffffffffffffff168152602001908152602001600020549050919050565b600160009054906101000a900473ffffffffffffffffffffffffffffffffffffffff1673ffffffffffffffffffffffffffffffffffffffff163373ffffffffffffffffffffffffffffffffffffffff161415156126f957600080fd5b600160009054906101000a900473ffffffffffffffffffffffffffffffffffffffff1673ffffffffffffffffffffffffffffffffffffffff166000809054906101000a900473ffffffffffffffffffffffffffffffffffffffff1673ffffffffffffffffffffffffffffffffffffffff167f8be0079c531659141344cd1fd0a4f28419497f9722a3daafe3b4186f6b6457e060405160405180910390a3600160009054906101000a900473ffffffffffffffffffffffffffffffffffffffff166000806101000a81548173ffffffffffffffffffffffffffffffffffffffff021916908373ffffffffffffffffffffffffffffffffffffffff160217905550565b60028263ffffffff1681548110151561280f57fe5b906000526020600020906003020160020160009054906101000a900460ff16158061283a5750600081145b80156128aa57503373ffffffffffffffffffffffffffffffffffffffff1660cf60008463ffffffff16815260200190815260200160002060009054906101000a900473ffffffffffffffffffffffffffffffffffffffff1673ffffffffffffffffffffffffffffffffffffffff16145b15156128b557600080fd5b8060d460008463ffffffff16815260200190815260200160002081905550600081146128e25760016128e5565b60005b60028363ffffffff168154811015156128fa57fe5b906000526020600020906003020160020160006101000a81548160ff021916908315150217905550803373ffffffffffffffffffffffffffffffffffffffff167ff924003c65581b32c1ca2123e131a27f2124f08fce76c9a94c102c80c2d5b4a684604051808263ffffffff1663ffffffff16815260200191505060405180910390a35050565b8060d160003373ffffffffffffffffffffffffffffffffffffffff1673ffffffffffffffffffffffffffffffffffffffff16815260200190815260200160002060008473ffffffffffffffffffffffffffffffffffffffff1673ffffffffffffffffffffffffffffffffffffffff16815260200190815260200160002060006101000a81548160ff0219169083151502179055508173ffffffffffffffffffffffffffffffffffffffff163373ffffffffffffffffffffffffffffffffffffffff167f17307eab39ab6107e8899845ad3d59bd9653f200f220920489ca2b5937696c3183604051808215151515815260200191505060405180910390a35050565b600080600060d460008563ffffffff16815260200190815260200160002054118015612ac7575060d460008463ffffffff168152602001908152602001600020543410155b1515612ad257600080fd5b600060d460008563ffffffff1681526020019081526020016000208190555060cf60008463ffffffff16815260200190815260200160002060009054906101000a900473ffffffffffffffffffffffffffffffffffffffff169150612710612b7060ce6009600c81101515612b4357fe5b601091828204019190066002029054906101000a900461ffff1661ffff163461516d90919063ffffffff16565b811515612b7957fe5b049050612be081612bd23460d360008773ffffffffffffffffffffffffffffffffffffffff1673ffffffffffffffffffffffffffffffffffffffff1681526020019081526020016000205461514e90919063ffffffff16565b6151a590919063ffffffff16565b60d360008473ffffffffffffffffffffffffffffffffffffffff1673ffffffffffffffffffffffffffffffffffffffff16815260200190815260200160002081905550612c968160d360008060009054906101000a900473ffffffffffffffffffffffffffffffffffffffff1673ffffffffffffffffffffffffffffffffffffffff1673ffffffffffffffffffffffffffffffffffffffff1681526020019081526020016000205461514e90919063ffffffff16565b60d360008060009054906101000a900473ffffffffffffffffffffffffffffffffffffffff1673ffffffffffffffffffffffffffffffffffffffff1673ffffffffffffffffffffffffffffffffffffffff168152602001908152602001600020819055503360d260008563ffffffff16815260200190815260200160002060006101000a81548173ffffffffffffffffffffffffffffffffffffffff021916908373ffffffffffffffffffffffffffffffffffffffff1602179055508263ffffffff163373ffffffffffffffffffffffffffffffffffffffff168373ffffffffffffffffffffffffffffffffffffffff167f8c5be1e5ebec7d5bd14f71427d1e84f3dd0314c0f7b2291e5b200ac8c7c3b92560405160405180910390a4612dc482338563ffffffff166113e1565b600060028463ffffffff16815481101515612ddb57fe5b906000526020600020906003020160020160006101000a81548160ff021916908315150217905550505050565b60008060008060008060ce6002600c81101515612e2157fe5b601091828204019190066002029054906101000a900461ffff1661ffff1634101515612e7c5760ce6005600c81101515612e5757fe5b601091828204019190066002029054906101000a900461ffff1661ffff169550612f59565b60ce6001600c81101515612e8c57fe5b601091828204019190066002029054906101000a900461ffff1661ffff1634101515612ee75760ce6004600c81101515612ec257fe5b601091828204019190066002029054906101000a900461ffff1661ffff169550612f58565b60ce6000600c81101515612ef757fe5b601091828204019190066002029054906101000a900461ffff1661ffff1634101515612f525760ce6003600c81101515612f2d57fe5b601091828204019190066002029054906101000a900461ffff1661ffff169550612f57565b600080fd5b5b5b600060d060003373ffffffffffffffffffffffffffffffffffffffff1673ffffffffffffffffffffffffffffffffffffffff16815260200190815260200160002054141561300d576040805190810160405280606460ff168152602001600060ff1681525060cd60003373ffffffffffffffffffffffffffffffffffffffff1673ffffffffffffffffffffffffffffffffffffffff16815260200190815260200160002090600261300b929190615ce4565b505b600094505b60068560ff1610156132b3573360cf6000600280549050815260200190815260200160002060006101000a81548173ffffffffffffffffffffffffffffffffffffffff021916908373ffffffffffffffffffffffffffffffffffffffff1602179055506130846000876103e8036143bf565b935060018414156130a0576011925060159150600390506130e3565b600b8410156130ba57600e925060119150600290506130e2565b60c88410156130d457600b9250600e9150600190506130e1565b60089250600b9150600090505b5b5b600260e0604051908101604052806130fb86866143bf565b60ff16815260200161310d86866143bf565b60ff16815260200161311f86866143bf565b60ff168152602001600160ff1681526020018360ff16815260200160008152602001600015158152509080600181540180825580915050906001820390600052602060002090600302016000909192909190915060008201518160000160006101000a81548160ff021916908360ff16021790555060208201518160000160016101000a81548160ff021916908360ff16021790555060408201518160000160026101000a81548160ff021916908360ff16021790555060608201518160000160036101000a81548160ff021916908360ff16021790555060808201518160000160046101000a81548160ff021916908360ff16021790555060a0820151816001015560c08201518160020160006101000a81548160ff0219169083151502179055505050506002805490503373ffffffffffffffffffffffffffffffffffffffff16600073ffffffffffffffffffffffffffffffffffffffff167fddf252ad1be2c89b69c2b068fc378daa952ba7f163c4a11628f55a4df523b3ef60405160405180910390a48480600101955050613012565b613306600660d060003373ffffffffffffffffffffffffffffffffffffffff1673ffffffffffffffffffffffffffffffffffffffff1681526020019081526020016000205461514e90919063ffffffff16565b60d060003373ffffffffffffffffffffffffffffffffffffffff1673ffffffffffffffffffffffffffffffffffffffff168152602001908152602001600020819055506133bc3460d360008060009054906101000a900473ffffffffffffffffffffffffffffffffffffffff1673ffffffffffffffffffffffffffffffffffffffff1673ffffffffffffffffffffffffffffffffffffffff1681526020019081526020016000205461514e90919063ffffffff16565b60d360008060009054906101000a900473ffffffffffffffffffffffffffffffffffffffff1673ffffffffffffffffffffffffffffffffffffffff1673ffffffffffffffffffffffffffffffffffffffff16815260200190815260200160002081905550505050505050565b600033838173ffffffffffffffffffffffffffffffffffffffff1660cf600083815260200190815260200160002060009054906101000a900473ffffffffffffffffffffffffffffffffffffffff1673ffffffffffffffffffffffffffffffffffffffff1614806134f757508173ffffffffffffffffffffffffffffffffffffffff1660d2600083815260200190815260200160002060009054906101000a900473ffffffffffffffffffffffffffffffffffffffff1673ffffffffffffffffffffffffffffffffffffffff16145b806135bb575060d1600060cf600084815260200190815260200160002060009054906101000a900473ffffffffffffffffffffffffffffffffffffffff1673ffffffffffffffffffffffffffffffffffffffff1673ffffffffffffffffffffffffffffffffffffffff16815260200190815260200160002060008373ffffffffffffffffffffffffffffffffffffffff1673ffffffffffffffffffffffffffffffffffffffff16815260200190815260200160002060009054906101000a900460ff165b15156135c657600080fd5b6135d18787876113e1565b6135da866151c1565b1561379c578573ffffffffffffffffffffffffffffffffffffffff1663f0b9e5ba8887876040518463ffffffff167c0100000000000000000000000000000000000000000000000000000000028152600401808473ffffffffffffffffffffffffffffffffffffffff1673ffffffffffffffffffffffffffffffffffffffff16815260200183815260200180602001828103825283818151815260200191508051906020019080838360005b838110156136a1578082015181840152602081019050613686565b50505050905090810190601f1680156136ce5780820380516001836020036101000a031916815260200191505b50945050505050602060405180830381600087803b1580156136ef57600080fd5b505af1158015613703573d6000803e3d6000fd5b505050506040513d602081101561371957600080fd5b8101908080519060200190929190505050925063f0b9e5ba7c0100000000000000000000000000000000000000000000000000000000027bffffffffffffffffffffffffffffffffffffffffffffffffffffffff1916837bffffffffffffffffffffffffffffffffffffffffffffffffffffffff191614151561379b57600080fd5b5b50505050505050565b6002818154811015156137b457fe5b90600052602060002090600302016000915090508060000160009054906101000a900460ff16908060000160019054906101000a900460ff16908060000160029054906101000a900460ff16908060000160039054906101000a900460ff16908060000160049054906101000a900460ff16908060010154908060020160009054906101000a900460ff16905087565b60008060009054906101000a900473ffffffffffffffffffffffffffffffffffffffff1673ffffffffffffffffffffffffffffffffffffffff163373ffffffffffffffffffffffffffffffffffffffff161415156138a157600080fd5b60008261ffff16101580156138ba5750600b8360ff1611155b15156138c557600080fd5b8260ff167fd7dd2782a7cef7ee43cf5a86222e0655f51235bf832cc5859c1687c29799fa7360ce8560ff16600c811015156138fc57fe5b601091828204019190066002029054906101000a900461ffff1684604051808361ffff1681526020018261ffff1681526020019250505060405180910390a28160ce8460ff16600c8110151561394e57fe5b601091828204019190066002026101000a81548161ffff021916908361ffff16021790555092915050565b600060d160008473ffffffffffffffffffffffffffffffffffffffff1673ffffffffffffffffffffffffffffffffffffffff16815260200190815260200160002060008373ffffffffffffffffffffffffffffffffffffffff1673ffffffffffffffffffffffffffffffffffffffff16815260200190815260200160002060009054906101000a900460ff16905092915050565b600080600060cd60003373ffffffffffffffffffffffffffffffffffffffff1673ffffffffffffffffffffffffffffffffffffffff1681526020019081526020016000206000600281101515613a5f57fe5b0154925060648314151515613a7357600080fd5b60cd60003373ffffffffffffffffffffffffffffffffffffffff1673ffffffffffffffffffffffffffffffffffffffff1681526020019081526020016000206001600281101515613ac057fe5b01549150600090505b6005811015613b6a5760006002600585606481101515613ae557fe5b01600085815260200190815260200160002060010183600581101515613b0757fe5b600891828204019190066004029054906101000a900463ffffffff1663ffffffff16815481101515613b3557fe5b906000526020600020906003020160020160006101000a81548160ff0219169083151502179055508080600101915050613ac9565b600583606481101515613b7957fe5b0160006001606986606481101515613b8d57fe5b0154038152602001908152602001600020600584606481101515613bad57fe5b0160008481526020019081526020016000206000820160009054906101000a900473ffffffffffffffffffffffffffffffffffffffff168160000160006101000a81548173ffffffffffffffffffffffffffffffffffffffff021916908373ffffffffffffffffffffffffffffffffffffffff1602179055506001820181600101906005613c3c929190615d29565b506002820154816002015560038201548160030155905050606983606481101515613c6357fe5b0160008154809291906001900391905055506040805190810160405280606460ff168152602001600060ff1681525060cd60003373ffffffffffffffffffffffffffffffffffffffff1673ffffffffffffffffffffffffffffffffffffffff168152602001908152602001600020906002613cdf929190615ce4565b50505050565b63f0b9e5ba7c01000000000000000000000000000000000000000000000000000000000281565b600060405180807f6f6e455243373231526563656976656428616464726573732c75696e7432353681526020017f2c627974657329000000000000000000000000000000000000000000000000008152506027019050604051809103902050949350505050565b6000806000888890508b8b9050148015613d9257508686905089899050145b8015613da357508484905087879050145b1515613dae57600080fd5b600091505b8a8a90508210156143b257600092503373ffffffffffffffffffffffffffffffffffffffff1660cf60008d8d868181101515613deb57fe5b9050602002013563ffffffff1663ffffffff16815260200190815260200160002060009054906101000a900473ffffffffffffffffffffffffffffffffffffffff1673ffffffffffffffffffffffffffffffffffffffff16141515613e4f57600080fd5b5b60028b8b848181101515613e6057fe5b9050602002013563ffffffff1663ffffffff16815481101515613e7f57fe5b9060005260206000209060030201600101546005600360028e8e878181101515613ea557fe5b9050602002013563ffffffff1663ffffffff16815481101515613ec457fe5b906000526020600020906003020160000160039054906101000a900460ff1660ff160a811515613ef057fe5b0411158015613f4f5750606460028c8c858181101515613f0c57fe5b9050602002013563ffffffff1663ffffffff16815481101515613f2b57fe5b906000526020600020906003020160000160039054906101000a900460ff1660ff16105b15613ff75760028b8b848181101515613f6457fe5b9050602002013563ffffffff1663ffffffff16815481101515613f8357fe5b9060005260206000209060030201600001600381819054906101000a900460ff168092919060010191906101000a81548160ff021916908360ff1602179055505060ce600a600c81101515613fd457fe5b601091828204019190066002029054906101000a900461ffff1683019250613e50565b8260ff16858584818110151561400957fe5b9050602002013560ff16888885818110151561402157fe5b9050602002013560ff168b8b86818110151561403957fe5b9050602002013560ff16010160ff161115151561405557600080fd5b6014600c600b60028e8e87818110151561406b57fe5b9050602002013563ffffffff1663ffffffff1681548110151561408a57fe5b906000526020600020906003020160000160039054906101000a900460ff1660ff168115156140b557fe5b04020160ff16905088888381811015156140cb57fe5b9050602002013560ff1660028c8c8581811015156140e557fe5b9050602002013563ffffffff1663ffffffff1681548110151561410457fe5b906000526020600020906003020160000160009054906101000a900460ff160160ff16811015801561419f5750868683818110151561413f57fe5b9050602002013560ff1660028c8c85818110151561415957fe5b9050602002013563ffffffff1663ffffffff1681548110151561417857fe5b906000526020600020906003020160000160019054906101000a900460ff160160ff168110155b8015614214575084848381811015156141b457fe5b9050602002013560ff1660028c8c8581811015156141ce57fe5b9050602002013563ffffffff1663ffffffff168154811015156141ed57fe5b906000526020600020906003020160000160029054906101000a900460ff160160ff168110155b151561421f57600080fd5b888883818110151561422d57fe5b9050602002013560ff1660028c8c85818110151561424757fe5b9050602002013563ffffffff1663ffffffff1681548110151561426657fe5b906000526020600020906003020160000160008282829054906101000a900460ff160192506101000a81548160ff021916908360ff16021790555086868381811015156142af57fe5b9050602002013560ff1660028c8c8581811015156142c957fe5b9050602002013563ffffffff1663ffffffff168154811015156142e857fe5b906000526020600020906003020160000160018282829054906101000a900460ff160192506101000a81548160ff021916908360ff160217905550848483818110151561433157fe5b9050602002013560ff1660028c8c85818110151561434b57fe5b9050602002013563ffffffff1663ffffffff1681548110151561436a57fe5b906000526020600020906003020160000160028282829054906101000a900460ff160192506101000a81548160ff021916908360ff1602179055508180600101925050613db3565b5050505050505050505050565b60006b032e8d52117a9c0e440a72406d11be3df58d1413010e78ff3300036003546b93945d2a0eb88aabce720bbd02018115156143f857fe5b06600381905550818314156144105760009050614425565b8283830360035481151561442057fe5b060190505b92915050565b614433615d74565b60008060008060008060008060058c60648110151561444e57fe5b0160008c8152602001908152602001600020608060405190810160405290816000820160009054906101000a900473ffffffffffffffffffffffffffffffffffffffff1673ffffffffffffffffffffffffffffffffffffffff1673ffffffffffffffffffffffffffffffffffffffff1681526020016001820160058060200260405190810160405280929190826005801561452a576020028201916000905b82829054906101000a900463ffffffff1663ffffffff16815260200190600401906020826003010492830192600103820291508084116144ed5790505b5050505050815260200160028201548152602001600382015481525050985060698c60648110151561455857fe5b01600081548092919060019003919050555060058c60648110151561457957fe5b01600060698e60648110151561458b57fe5b0154815260200190815260200160002060058d6064811015156145aa57fe5b0160008d81526020019081526020016000206000820160009054906101000a900473ffffffffffffffffffffffffffffffffffffffff168160000160006101000a81548173ffffffffffffffffffffffffffffffffffffffff021916908373ffffffffffffffffffffffffffffffffffffffff1602179055506001820181600101906005614639929190615d29565b5060028201548160020155600382015481600301559050506040805190810160405280606460ff168152602001600060ff1681525060cd60008b6000015173ffffffffffffffffffffffffffffffffffffffff1673ffffffffffffffffffffffffffffffffffffffff1681526020019081526020016000209060026146bf929190615ce4565b5060009b505b60058c1015614a9457898c6005811015156146dc57fe5b6020020151888d6028811015156146ef57fe5b600891828204019190066004026101000a81548163ffffffff021916908363ffffffff16021790555060028a8d60058110151561472857fe5b602002015163ffffffff1681548110151561473f57fe5b906000526020600020906003020160000160009054906101000a900460ff1660ff168860058e0160288110151561477257fe5b600891828204019190066004026101000a81548163ffffffff021916908363ffffffff16021790555060028a8d6005811015156147ab57fe5b602002015163ffffffff168154811015156147c257fe5b906000526020600020906003020160000160019054906101000a900460ff1660ff1688600a8e016028811015156147f557fe5b600891828204019190066004026101000a81548163ffffffff021916908363ffffffff16021790555060028a8d60058110151561482e57fe5b602002015163ffffffff1681548110151561484557fe5b906000526020600020906003020160000160029054906101000a900460ff1660ff1688600f8e0160288110151561487857fe5b600891828204019190066004026101000a81548163ffffffff021916908363ffffffff16021790555088602001518c6005811015156148b357fe5b60200201518860148e016028811015156148c957fe5b600891828204019190066004026101000a81548163ffffffff021916908363ffffffff160217905550600289602001518d60058110151561490657fe5b602002015163ffffffff1681548110151561491d57fe5b906000526020600020906003020160000160009054906101000a900460ff1660ff168860198e0160288110151561495057fe5b600891828204019190066004026101000a81548163ffffffff021916908363ffffffff160217905550600289602001518d60058110151561498d57fe5b602002015163ffffffff168154811015156149a457fe5b906000526020600020906003020160000160019054906101000a900460ff1660ff1688601e8e016028811015156149d757fe5b600891828204019190066004026101000a81548163ffffffff021916908363ffffffff160217905550600289602001518d600581101515614a1457fe5b602002015163ffffffff16815481101515614a2b57fe5b906000526020600020906003020160000160029054906101000a900460ff1660ff168860238e01602881101515614a5e57fe5b600891828204019190066004026101000a81548163ffffffff021916908363ffffffff1602179055508b806001019c50506146c5565b60009b505b60058c1015614b0457600060028a602001518e600581101515614ab857fe5b602002015163ffffffff16815481101515614acf57fe5b906000526020600020906003020160020160006101000a81548160ff0219169083151502179055508b806001019c5050614a99565b614b1d89606001516004546151a590919063ffffffff16565b600481905550614b318a8a602001516151d4565b96506001871415614b55573395508860000151945034935088606001519250614da8565b6002871415614b77578860000151955033945088606001519350349250614da7565b614bd1896060015160d360008c6000015173ffffffffffffffffffffffffffffffffffffffff1673ffffffffffffffffffffffffffffffffffffffff1681526020019081526020016000205461514e90919063ffffffff16565b60d360008b6000015173ffffffffffffffffffffffffffffffffffffffff1673ffffffffffffffffffffffffffffffffffffffff16815260200190815260200160002081905550614c6a3460d360003373ffffffffffffffffffffffffffffffffffffffff1673ffffffffffffffffffffffffffffffffffffffff1681526020019081526020016000205461514e90919063ffffffff16565b60d360003373ffffffffffffffffffffffffffffffffffffffff1673ffffffffffffffffffffffffffffffffffffffff1681526020019081526020016000208190555086896000015173ffffffffffffffffffffffffffffffffffffffff163373ffffffffffffffffffffffffffffffffffffffff167fffd8217a97bd163f76210de91bdc3e9cdb3f23e1034b9a98a209d3a0ff857be28b60ce600b600c81101515614d1257fe5b601091828204019190066002029054906101000a900461ffff1687604051808460288015614d81576020028201916000905b82829054906101000a900463ffffffff1663ffffffff1681526020019060040190602082600301049283019260010382029150808411614d445790505b50508360ff1660ff168152602001828152602001935050505060405180910390a4615140565b5b3489606001511115614dbc57349150614dc4565b886060015191505b612710614e0760ce6009600c81101515614dda57fe5b601091828204019190066002029054906101000a900461ffff1661ffff168461516d90919063ffffffff16565b811515614e1057fe5b049050614e8984614e7b83614e6d8660d360008d73ffffffffffffffffffffffffffffffffffffffff1673ffffffffffffffffffffffffffffffffffffffff1681526020019081526020016000205461514e90919063ffffffff16565b6151a590919063ffffffff16565b61514e90919063ffffffff16565b60d360008873ffffffffffffffffffffffffffffffffffffffff1673ffffffffffffffffffffffffffffffffffffffff16815260200190815260200160002081905550614f3082614f228560d360008a73ffffffffffffffffffffffffffffffffffffffff1673ffffffffffffffffffffffffffffffffffffffff1681526020019081526020016000205461514e90919063ffffffff16565b6151a590919063ffffffff16565b60d360008773ffffffffffffffffffffffffffffffffffffffff1673ffffffffffffffffffffffffffffffffffffffff16815260200190815260200160002081905550614fe68160d360008060009054906101000a900473ffffffffffffffffffffffffffffffffffffffff1673ffffffffffffffffffffffffffffffffffffffff1673ffffffffffffffffffffffffffffffffffffffff1681526020019081526020016000205461514e90919063ffffffff16565b60d360008060009054906101000a900473ffffffffffffffffffffffffffffffffffffffff1673ffffffffffffffffffffffffffffffffffffffff1673ffffffffffffffffffffffffffffffffffffffff1681526020019081526020016000208190555086896000015173ffffffffffffffffffffffffffffffffffffffff163373ffffffffffffffffffffffffffffffffffffffff167fffd8217a97bd163f76210de91bdc3e9cdb3f23e1034b9a98a209d3a0ff857be28b60ce600b600c811015156150af57fe5b601091828204019190066002029054906101000a900461ffff168760405180846028801561511e576020028201916000905b82829054906101000a900463ffffffff1663ffffffff16815260200190600401906020826003010492830192600103820291508084116150e15790505b50508360ff1660ff168152602001828152602001935050505060405180910390a45b505050505050505050505050565b6000818301905082811015151561516457600080fd5b80905092915050565b600080831415615180576000905061519f565b818302905081838281151561519157fe5b0414151561519b57fe5b8090505b92915050565b60008282111515156151b657600080fd5b818303905092915050565b600080823b905060008111915050919050565b60008060006151e1615dba565b6151e9615dba565b600080945060009350600090505b600581101561543b5760806040519081016040528060028a8460058110151561521c57fe5b602002015163ffffffff1681548110151561523357fe5b906000526020600020906003020160000160009054906101000a900460ff1660ff16815260200160028a8460058110151561526a57fe5b602002015163ffffffff1681548110151561528157fe5b906000526020600020906003020160000160019054906101000a900460ff1660ff16815260200160028a846005811015156152b857fe5b602002015163ffffffff168154811015156152cf57fe5b906000526020600020906003020160000160029054906101000a900460ff1660ff168152602001600063ffffffff16815250838260068110151561530f57fe5b60200201819052506080604051908101604052806002898460058110151561533357fe5b602002015163ffffffff1681548110151561534a57fe5b906000526020600020906003020160000160009054906101000a900460ff1660ff1681526020016002898460058110151561538157fe5b602002015163ffffffff1681548110151561539857fe5b906000526020600020906003020160000160019054906101000a900460ff1660ff168152602001600289846005811015156153cf57fe5b602002015163ffffffff168154811015156153e657fe5b906000526020600020906003020160000160029054906101000a900460ff1660ff168152602001600063ffffffff16815250828260068110151561542657fe5b602002018190525080806001019150506151f7565b60009050600581101561598f57818160068110151561545657fe5b60200201516040015160ff16838260068110151561547057fe5b60200201516040015160ff16111561558357818160068110151561549057fe5b60200201516020015160ff1683826006811015156154aa57fe5b60200201516000015160ff16111561551f57848060010195505060ce600b600c811015156154d457fe5b601091828204019190066002029054906101000a900461ffff1683600183016006811015156154ff57fe5b60200201516000018181510191509060ff16908160ff168152505061557e565b838060010194505060ce600b600c8110151561553757fe5b601091828204019190066002029054906101000a900461ffff16826001830160068110151561556257fe5b60200201516020018181510191509060ff16908160ff16815250505b61594c565b818160068110151561559157fe5b60200201516040015160ff1683826006811015156155ab57fe5b60200201516040015160ff1610156156be5782816006811015156155cb57fe5b60200201516020015160ff1682826006811015156155e557fe5b60200201516000015160ff16111561565a57838060010194505060ce600b600c8110151561560f57fe5b601091828204019190066002029054906101000a900461ffff16826001830160068110151561563a57fe5b60200201516000018181510191509060ff16908160ff16815250506156b9565b848060010195505060ce600b600c8110151561567257fe5b601091828204019190066002029054906101000a900461ffff16836001830160068110151561569d57fe5b60200201516020018181510191509060ff16908160ff16815250505b61594b565b81816006811015156156cc57fe5b60200201516000015160ff1683826006811015156156e657fe5b60200201516000015160ff16111561575b57848060010195505060ce600b600c8110151561571057fe5b601091828204019190066002029054906101000a900461ffff16836001830160068110151561573b57fe5b60200201516000018181510191509060ff16908160ff168152505061594a565b818160068110151561576957fe5b60200201516000015160ff16838260068110151561578357fe5b60200201516000015160ff1610156157f857838060010194505060ce600b600c811015156157ad57fe5b601091828204019190066002029054906101000a900461ffff1682600183016006811015156157d857fe5b60200201516020018181510191509060ff16908160ff1681525050615949565b818160068110151561580657fe5b60200201516020015160ff16838260068110151561582057fe5b60200201516020015160ff16111561589557848060010195505060ce600b600c8110151561584a57fe5b601091828204019190066002029054906101000a900461ffff16836001830160068110151561587557fe5b60200201516020018181510191509060ff16908160ff1681525050615948565b82816006811015156158a357fe5b60200201516020015160ff1683826006811015156158bd57fe5b60200201516020015160ff16101561593257838060010194505060ce600b600c811015156158e757fe5b601091828204019190066002029054906101000a900461ffff16826001830160068110151561591257fe5b60200201516020018181510191509060ff16908160ff1681525050615947565b61593e8888600161599b565b60009550615990565b5b5b5b5b5b61597484861161595c578761595e565b885b85871061596b578861596d565b895b600061599b565b838511615982576002615985565b60015b60ff169550615990565b5b505050505092915050565b60008090505b6005811015615bd8576064600285836005811015156159bc57fe5b602002015163ffffffff168154811015156159d357fe5b906000526020600020906003020160000160039054906101000a900460ff1660ff161015615aa05760ce6007600c81101515615a0b57fe5b601091828204019190066002029054906101000a900461ffff1661ffff1660028583600581101515615a3957fe5b602002015163ffffffff16815481101515615a5057fe5b9060005260206000209060030201600101540160028583600581101515615a7357fe5b602002015163ffffffff16815481101515615a8a57fe5b9060005260206000209060030201600101819055505b606460028483600581101515615ab257fe5b602002015163ffffffff16815481101515615ac957fe5b906000526020600020906003020160000160039054906101000a900460ff1660ff161015615bcb5781615b255760ce6008600c81101515615b0657fe5b601091828204019190066002029054906101000a900461ffff16615b50565b60ce6007600c81101515615b3557fe5b601091828204019190066002029054906101000a900461ffff165b61ffff1660028483600581101515615b6457fe5b602002015163ffffffff16815481101515615b7b57fe5b9060005260206000209060030201600101540160028483600581101515615b9e57fe5b602002015163ffffffff16815481101515615bb557fe5b9060005260206000209060030201600101819055505b80806001019150506159a1565b50505050565b60a060405190810160405280600590602082028038833980820191505090505090565b826005600701600890048101928215615c935791602002820160005b83821115615c6157835183826101000a81548163ffffffff021916908363ffffffff1602179055509260200192600401602081600301049283019260010302615c1d565b8015615c915782816101000a81549063ffffffff0219169055600401602081600301049283019260010302615c61565b505b509050615ca09190615de9565b5090565b8260028101928215615cd3579160200282015b82811115615cd2578251825591602001919060010190615cb7565b5b509050615ce09190615e1c565b5090565b8260028101928215615d18579160200282015b82811115615d17578251829060ff16905591602001919060010190615cf7565b5b509050615d259190615e1c565b5090565b826005600701600890048101928215615d6357916007016008900482015b82811115615d62578254825591600101919060010190615d47565b5b509050615d709190615de9565b5090565b61010060405190810160405280600073ffffffffffffffffffffffffffffffffffffffff168152602001615da6615e41565b815260200160008152602001600081525090565b610300604051908101604052806006905b615dd3615e64565b815260200190600190039081615dcb5790505090565b615e1991905b80821115615e1557600081816101000a81549063ffffffff021916905550600101615def565b5090565b90565b615e3e91905b80821115615e3a576000816000905550600101615e22565b5090565b90565b60a060405190810160405280600590602082028038833980820191505090505090565b608060405190810160405280600060ff168152602001600060ff168152602001600060ff168152602001600063ffffffff16815250905600a165627a7a7230582024968b3d76ad015784c3669893a42a6b1adf3310c823fb7399acec3ebd51cbb10029",
  "source": "pragma solidity ^0.4.24;\n\nimport \"./AdminPanel.sol\";\nimport \"./SafeMath.sol\";\n\ncontract CryptoMon is AdminPanel {\n\nusing SafeMath for uint8;\n\n    constructor() public {\n        seed = now;\n    }\n\n\tfunction unbox()\n        external\n\t    payable\n\t{\n        uint256 _modifier;\n        if (msg.value >= params[2])\n            _modifier = params[5];\n        else if (msg.value >= params[1])\n            _modifier = params[4];\n        else if (msg.value >= params[0])\n            _modifier = params[3];\n        else\n            revert();\n\n        if (balances[msg.sender] == 0)\n            isWaiting[msg.sender] = [100, 0];\n\n        for (uint8 i = 0; i < 6; i++) {\n            owner[monsters.length] = msg.sender;\n            uint256 _tmp = randInt(0, 1000-_modifier);\n            uint256 _modRarityMin;\n            uint256 _modRarityMax;\n            uint8 _rarity;\n\n        if (_tmp == 1) {\n            _modRarityMin = 17;\n            _modRarityMax = 21;\n            _rarity = 3;\n        } else if (_tmp < 11) {\n            _modRarityMin = 14;\n            _modRarityMax = 17;\n            _rarity = 2;\n\t\t} else if (_tmp < 200) {\n            _modRarityMin = 11;\n            _modRarityMax = 14;\n            _rarity = 1;\n\t\t} else {\n    \t\t_modRarityMin = 8;\n            _modRarityMax = 11;\n    \t\t_rarity = 0;\n        }\n\n        monsters.push(\n            Monster(\n                uint8(randInt(_modRarityMin, _modRarityMax)),\n                uint8(randInt(_modRarityMin, _modRarityMax)),\n                uint8(randInt(_modRarityMin, _modRarityMax)),\n                1,\n                _rarity,\n                0,\n                false\n            )\n        );\n\n      emit Transfer(address(0), msg.sender, monsters.length);\n    }\n        balances[msg.sender] = balances[msg.sender].add(6);\n        money[contractOwner] = money[contractOwner].add(msg.value);\n\t}\n\n    function fight(uint32[5] _ids, uint256 _minBet)\n        external\n        payable\n    {\n        //Check that you actually payed at least your minimum bet and that you are not already waiting.\n        require(msg.value >= _minBet && isWaiting[msg.sender][0] == 100);\n        for (uint256 i = 0; i < 5; i++) {\n            //Check that you own all of the monsters you want to use to attack and that they aren't busy\n            require(owner[_ids[i]] == msg.sender && !monsters[_ids[i]].busy);\n            for (uint256 j = 0; j < 5; j++) {\n                //check that there aren't any duplicates in your squad\n                require(_ids[i] != _ids[j] || i == j);\n            }\n        }\n\n        //Sets the matchmaking level.\n        uint256 _level;\n        uint8[5] memory _tmp;\n        for (i = 0; i < 5; i++)\n            _tmp[i] = monsters[_ids[i]].lvl;\n\n        //Insertion sort algorithm\n        for (i = 1;i < 5;i++) {\n            uint8 temp = _tmp[i];\n            for (j = i -1; j >= 0 && temp < _tmp[j]; j--)\n                _tmp[j+1] = _tmp[j];\n            _tmp[j + 1] = temp;\n        }\n\n        //The waiting queue has only 100 spaces, this means that its last index is 99, not 100.\n        _level = _tmp[2] - 1;\n\n        //Used to prevent underflows. More efficient than doing other checks\n        if (_level < params[6])\n            _level = params[6];\n\n        //Checks for every level in range.\n        for (i = _level - params[6]; i <= _level + params[6] && i < 100; i++) {\n\n            //Skips current range to save gas and prevent errors when using %0\n            if (waitingLength[i] == 0)\n                continue;\n\n            //Checks for every person in the current waiting level to find someone who has the same bet range as you.\n            //Starts to check from a random position in the array, to prevent unlucky people from never playing.\n            //Note that waiting is an array of mappings, this is because arrays are broken, and .length is not\n            //reset after deleting the last element.\n            uint256 _start = randInt(0, waitingLength[i]);\n            for (j = _start; j < waitingLength[i] + _start; j++) {\n                //j needs to be \"modulized\", to loop back in front of the array.\n                uint256 j_ = j % waitingLength[i];\n\n                //If it finds someone the fight starts and the functions returns.\n                if (\n                    waiting[i][j_].minBet <= msg.value &&\n                    waiting[i][j_].bet >= _minBet &&\n                    waiting[i][j_].addr != msg.sender\n                ) return computeBattleResults(i, j_, _ids);\n            }\n        }\n\n        //If the contract couldn't find anyone, it puts you in the waiting list and puts your money\n        //In pending state. All of your monsters are marked as busy.\n        for (i = 0; i < 5; i++)\n            monsters[_ids[0]].busy = true;\n\n        waiting[_level][waitingLength[_level]] = Defender(\n            msg.sender,\n            _ids,\n            _minBet,\n            msg.value\n        );\n\n        waitingLength[_level]++;\n        moneyPending= moneyPending.add(msg.value);\n\n        //Sets waiting state\n        isWaiting[msg.sender] = [_level, waitingLength[_level]];\n    }\n\n    function stopWaiting()\n        external\n    {\n        uint256 _x = isWaiting[msg.sender][0];\n        require(_x != 100);\n        uint256 _y = isWaiting[msg.sender][1];\n\n        for (uint256 i = 0; i < 5; i++)\n            monsters[waiting[_x][_y].deck[i]].busy = false;\n\n        waiting[_x][_y] = waiting[_x][waitingLength[_x] - 1];\n        waitingLength[_x]--;\n        isWaiting[msg.sender] = [100, 0];\n    }\n\n\n    function sellMonster(\n\t\tuint32 _id,\n\t\tuint256 _price\n\t)\n\t\texternal\n\t{\n        require((!monsters[_id].busy || _price == 0) && owner[_id] == msg.sender);\n\t\tinSale[_id] = _price;\n        monsters[_id].busy = (_price == 0)? false : true;\n        emit ForSale(msg.sender, _id, _price);\n\t}\n\n\tfunction buyMonster(uint32 _id)\n\t\texternal\n\t\tpayable\n    {\n\t\trequire(inSale[_id] > 0 && msg.value >= inSale[_id]);\n        inSale[_id] = 0;\n        address owner_ = owner[_id];\n\n        uint256 _fees = msg.value.mul(params[9]) / 10000;\n        money[owner_] = money[owner_].add(msg.value).sub(_fees);\n        money[contractOwner] = money[contractOwner].add(_fees);\n\n        approved[_id] = msg.sender;\n        emit Approval(owner_, msg.sender, _id);\n\n        transferFrom(owner_, msg.sender, _id);\n\n        monsters[_id].busy = false;\n\t}\n\n\tfunction withdraw()\n        external\n        returns(uint)\n    {\n\t\trequire(money[msg.sender] > 0 );\n\t\tuint256 _amount = money[msg.sender];\n\t\tmoney[msg.sender] = 0;\n\t\tmsg.sender.transfer(_amount);\n        return _amount;\n\t}\n\n    function lvlUp (\n        uint32[] _ids,\n        uint8[] _atkMod,\n        uint8[] _defMod,\n        uint8[] _spdMod\n    )\n        external\n    {\n        require(\n            _ids.length == _atkMod.length &&\n            _atkMod.length == _defMod.length &&\n            _defMod.length == _spdMod.length\n        );\n\n        uint8 _skillsAvailable;\n\n        for(uint256 i = 0; i<_ids.length; i++) {\n            _skillsAvailable = 0;\n            require(owner[_ids[i]] == msg.sender);\n\n            while (\n                ((uint256(monsters[_ids[i]].lvl)**3)/5) <= monsters[_ids[i]].exp &&\n                monsters[_ids[i]].lvl < 100\n            ) {\n                monsters[_ids[i]].lvl++;\n                _skillsAvailable += uint8(params[10]);\n            }\n\n\n            require(_atkMod[i] + _defMod[i] + _spdMod[i] <= _skillsAvailable);\n\n            uint256 _cap = monsters[_ids[i]].lvl/11*12+20;\n\n            require(\n                _cap>=monsters[_ids[i]].atk+_atkMod[i] &&\n                _cap>=monsters[_ids[i]].def+_defMod[i] &&\n                _cap>=monsters[_ids[i]].spd+_spdMod[i]\n                );\n                monsters[_ids[i]].atk += _atkMod[i];\n                monsters[_ids[i]].def += _defMod[i];\n                monsters[_ids[i]].spd += _spdMod[i];\n        }\n    }\n}\n",
  "sourcePath": "/home/pc/Desktop/Repo/cryptomon-contracts/contracts/CryptoMon.sol",
  "compiler": {
    "name": "solc",
    "version": "0.4.24+commit.e67f0147.Emscripten.clang"
  },
  "schemaVersion": "2.0.1",
  "updatedAt": "2018-06-28T08:28:54.976Z"
}